:020000040800F2
:100000005008002045010008B5350008B735000844
:10001000BB350008BF350008C335000800000000EC
:10002000000000000000000000000000C7350008CC
:10003000C935000800000000CB350008CD350008A8
:100040005F0100085F0100085F0100085F01000810
:100050005F0100085F0100085F0100085F01000800
:10006000F13800085F0100085F0100085F01000827
:100070005F0100085F0100085F0100085F010008E0
:100080005F0100085F0100085F0100085F010008D0
:100090005F0100085F0100085F0100085F010008C0
:1000A0005F010008CF3500085F0100085F0100080C
:1000B000D5370008F13700085F0100085F0100082C
:1000C0005F0100085F0100085F0100085F01000890
:1000D0005F0100080D3800087F3800085F01000844
:1000E0005F0100085F0100085F0100085F01000870
:1000F0005F0100085F0100085F0100085F01000860
:100100005F0100085F0100085F0100085F0100084F
:100110005F0100085F0100085F0100085F0100083F
:100120005F0100085F0100085F0100085F0100082F
:10013000DFF80CD004F01EFC004800471334000820
:10014000500800200648804706480047FEE7FEE7C3
:10015000FEE7FEE7FEE7FEE7FEE7FEE7FEE7FEE777
:1001600047020008310100080CB500200190009002
:100170006C48006840F480306A49086000BF6948F4
:10018000006800F4003000900198401C0190009835
:1001900018B90198B0F5A06FF1D16248006800F479
:1001A000003010B10120009001E000200090009884
:1001B000012843D15C48006840F010005A490860AB
:1001C0000846006820F0030008600846006840F018
:1001D0000200086053484068524948600846406839
:1001E00048600846406840F48060486008464068BF
:1001F00020F47C1048600846406840F4E8104860ED
:100200000846006840F08070086000BF45480068FC
:1002100000F000700028F9D04248406820F0030048
:10022000404948600846406840F00200486000BF0E
:100230003C48406800F00C000828F9D10CBD10B50E
:10024000FFF792FF10BD10B53648006840F001007E
:1002500034490860084640683449084031494860DC
:1002600008460068324908402E4908600846006880
:1002700020F4802008600846406820F4FE004860B2
:100280004FF41F008860FFF7DAFF4FF00060294944
:10029000086010BD10B5002100200022214B5B68D2
:1002A00003F00C0121B1042906D0082928D107E068
:1002B000214B224C236027E01F4B204C236023E07E
:1002C000184B5B6803F47010164B5B6803F48032C4
:1002D000022303EB904022B9194B4343174C236090
:1002E0000DE0104B5B6803F4003323B1144B434320
:1002F000124C236003E0104B4343104C236003E097
:100300000D4B0E4C236000BF00BF064B5B68C3F370
:1003100003130C4CE15C094B1B68CB40074C23607A
:1003200010BD000000100240002002400000FFF855
:10033000FFFFF6FE08ED00E000127A00000000204A
:1003400000093D000400002031490143314A116099
:10035000704770B5002100230F22C47804B32D4CE0
:10036000246804F4E064C4F5E064210AC1F10403E4
:10037000CA40447804FA03F1847814402143090107
:10038000254C0678A155047804F01F050124AC40E3
:1003900005786D11AD0005F1E025C5F8004109E0D3
:1003A000047804F01F050124AC401C4D067876113A
:1003B00045F8264070BD1A4A0A400243154B1B1FE0
:1003C0001A60704739B1134A121D12680243114B6B
:1003D0001B1D1A6006E00F4A121D126882430D4B66
:1003E0001B1D1A607047042808D14FF0E0210969ED
:1003F00041F004014FF0E022116107E04FF0E021ED
:10040000096921F004014FF0E022116170470000FA
:100410000000FA050CED00E000E400E080E100E0FF
:1004200080FFFF1F002044490860091D0860091D66
:100430000860091D086041483F4914310860704751
:1004400000213D498279002A3AD00A4612680368A1
:100450009A430B461A600A1D126803689A430B1DE3
:100460001A60027911440A6803681A430A60324A22
:100470000832126803689A432F4B08331A601A1D1A
:10048000126803689A432C4B0C331A604279102A85
:100490000ED11A1F126803681A43274B08331A60DB
:1004A0001A1D126803681A43234B0C331A600DE0BF
:1004B0002149427911440A6803681A430A6005E039
:1004C000027911440A6803689A430A607047002160
:1004D000016001710C214171002181717047164941
:1004E000103109680143144A103211607047014607
:1004F0000020114A143212680A400AB1012000E0BB
:10050000002070470C4914310860704701460020F4
:100510000022094B1B6803EA0102074B14331B68D6
:100520000B4013B10AB1012000E0002070470249DE
:10053000143108607047000000040140FFFF0F0005
:1005400001460020FE4A106800F0380008431060A1
:100550007047FB49096821F00801F94A116011460A
:100560000968014311607047F549096821F01001DD
:10057000F34A116011460968014311607047F14860
:10058000EF494860F04848607047EE48EC494860E1
:10059000ED4848607047EA48006940F08000E8494B
:1005A00008617047E648006940F08000E44908614E
:1005B00070470420E249C96801F0010109B1012036
:1005C0000EE0DF49C96801F0040109B1022007E02B
:1005D000DB49C96801F0100109B1032000E00420E3
:1005E000704700B502460423FFF7E3FF034603E02C
:1005F000FFF7DFFF0346521E012B01D1002AF7D17E
:1006000002B90523184600BD30B5044604254FF451
:100610003020FFF7E6FF0546042D17D1C8480069D2
:1006200040F00200C649086108464461006940F094
:10063000400008614FF43020FFF7D3FF0546C04863
:10064000006941F6FD710840BD490861284630BD8A
:1006500010B504244FF43020FFF7C3FF0446042CE8
:1006600016D1B748006940F00400B5490861084652
:10067000006940F0400008614FF43020FFF7B1FFFF
:100680000446AF48006941F6FB710840AC49086177
:10069000204610BD00B502460423FFF78AFF03463B
:1006A00003E0FFF786FF0346521E012B01D1002A0B
:1006B000F7D102B90523184600BD10B504244FF444
:1006C0003020FFF7E7FF0446042C16D19C48006950
:1006D00040F004009A4908610846006940F0400073
:1006E00008614FF43020FFF7D5FF044694480069B5
:1006F00041F6FB71084092490861204610BD002078
:100700008F49C96901F0020109B1012000E0002010
:10071000704730B5A5250424FFF7F1FF00B100258F
:100720004FF43020FFF75DFF0446042C3AD1854892
:1007300083498860844888600846006940F020004A
:1007400008610846006940F0400008614FF430201D
:10075000FFF747FF0446042C1BD17948006941F696
:10076000DF710840764908610846006940F01000D2
:10077000086176480580E002FFF733FF0446052C48
:1007800010D06F48006941F6EF7108406C4908616C
:1007900008E0052C06D06A48006941F6EF71084070
:1007A00067490861204630BD78B506460C460425E9
:1007B00000200090E802FFF714FF0546042D24D125
:1007C0005F48006940F001005D4908613480E8023B
:1007D000FFF707FF0546042D10D1B01C0090200C38
:1007E00000990880E802FFF7FCFE054654480069BE
:1007F00041F6FE7108405249086106E05048006920
:1008000041F6FE7108404E490861284678BD70B532
:1008100004460D460426F002FFF7E3FE0646042ECA
:1008200011D14748006940F0010045490861258021
:10083000F002FFF7D6FE06464148006941F6FE7118
:1008400008403F490861304670BD70B505460E4608
:100850000424E002FFF7C5FE0446042C17D13948F2
:1008600037498860384888600846006940F01000C1
:1008700008612E80E002FFF7B4FE0446052C06D086
:100880002F48006941F6EF7108402D490861204664
:1008900070BD2DE9F04304464FF6FF763746B0466B
:1008A000B1460425E443E6B2C4F30727C4F307487E
:1008B0004FEA1469E802FFF794FE0546042D49D17A
:1008C00020481F498860204888600846006940F039
:1008D00010000861FF2E06D01C4808300680E80290
:1008E000FFF77FFE0546042D08D1FF2F06D01748DD
:1008F0000A300780E802FFF774FE0546042D0AD18E
:10090000B8F1FF0F07D011480C30A0F80080E802C2
:10091000FFF767FE0546042D0AD1B9F1FF0F07D096
:100920000A480E30A0F80090E802FFF75AFE05468C
:10093000052D0FD00248006941F6EF71084007E02D
:100940000020024023016745AB89EFCD00F8FF1F6F
:10095000664908612846BDE8F08330B505460424A1
:100960004FF43020FFF73DFE0446042C41D160488F
:100970005E4988605F4888600846006940F0200052
:1009800008610846006940F0400008614FF43020DB
:10099000FFF727FE0446042C22D15448006941F693
:1009A000DF710840514908610846006940F01000B5
:1009B00008611DB100205049088002E0A5204E4981
:1009C00008804FF43020FFF70CFE0446052C10D0B1
:1009D0004648006941F6EF7108404449086108E063
:1009E000052C06D04148006941F6DF7108403F49B7
:1009F0000861204630BDF0B505460E461746042472
:100A00003B483A4988603B488860E002FFF7E9FDCF
:100A10000446042C19D13548006940F010003349D0
:100A2000086147F0F800304328433349891C0880A7
:100A3000E002FFF7D6FD0446052C06D02B480069DE
:100A400041F6EF710840294908612046F0BD27486A
:100A5000C069800870472548006A70470020234914
:100A6000096801F0200109B1012000E00020704771
:100A700029B11E4A126902431C4B1A6104E01B4A49
:100A800012698243194B1A617047014600200129FF
:100A900008D1164AD26902F001020AB1012008E029
:100AA000002006E0114AD2680A400AB1012000E0A5
:100AB000002070470D49C860704704200B49C96881
:100AC00001F0010109B101200EE00849C96801F0F7
:100AD000040109B1022007E00449C96801F01001CE
:100AE00009B1032000E0042070470000002002400C
:100AF00023016745AB89EFCD00F8FF1F10B5044611
:100B0000CC48844208D10121042000F02DFB0021B3
:100B1000042000F029FB46E0C748844208D10121A7
:100B2000082000F021FB0021082000F01DFB3AE026
:100B3000C248844208D10121102000F015FB002199
:100B4000102000F011FB2EE0BD48844208D10121A5
:100B5000202000F009FB0021202000F005FB22E00E
:100B6000B848844208D10121402000F0FDFA00215C
:100B7000402000F0F9FA16E0B348844208D1012180
:100B8000802000F0F1FA0021802000F0EDFA0AE068
:100B9000AE48844207D10121801500F0E5FA00211A
:100BA000A01500F0E1FA10BD10B50121084600F0D3
:100BB000DBFA0021012000F0D7FA10BD2DE9F04149
:100BC000024600250026002000230024002791F87B
:100BD00003C00CF00F0591F803C00CF0100CBCF131
:100BE000000F03D091F802C04CEA050591F800C04F
:100BF000BCF1000F31D0146800202BE04FF0010C45
:100C00000CFA00F3B1F800C00CEA03069E4220D1B2
:100C100083004FF00F0C0CFA03F7BC4305FA03FCFA
:100C20004CEA040491F803C0BCF1280F06D14FF040
:100C3000010C0CFA00FCC2F814C00AE091F803C0E1
:100C4000BCF1480F05D14FF0010C0CFA00FCC2F8C2
:100C500010C0401C0828D1D31460B1F800C0BCF10A
:100C6000FF0F34DD546800202EE000F1080C4FF037
:100C7000010808FA0CF3B1F800C00CEA03069E4222
:100C800021D183004FF00F0C0CFA03F7BC4305FA97
:100C900003FC4CEA040491F803C0BCF1280F05D111
:100CA00000F1080C08FA0CF8C2F8148091F803C09F
:100CB000BCF1480F07D100F1080C4FF0010808FA09
:100CC0000CF8C2F81080401C0828CED35460BDE850
:100CD000F0814FF6FF710180022181700421C17003
:100CE00070470246002093680B400BB1012000E0E2
:100CF000002070470146886880B270470246002095
:100D0000D3680B400BB1012000E000207047014682
:100D1000C86880B2704701617047416170470AB18D
:100D2000016100E041617047C16070474FF480325B
:100D30000A438261816182618269826970470246E9
:100D40000020434B18684FF68073184040EA0210A9
:100D500008433F4B186070473E49C8617047F0B583
:100D60000A46002300240021002500F00046B6F1C9
:100D7000004F02D1364EF16901E0354E7168C0F383
:100D8000034583B200F44016B6F5401F08D121F0A8
:100D900070612F4E766826F070662D4F7E6012E0EF
:100DA00000F48016B6F5801F06D1032606FA05F476
:100DB000A14341F0706106E0460D360103FA06F6E4
:100DC000B14341F0706122B1460D360103FA06F6D7
:100DD000314300F00046B6F1004F02D11C4EF161E4
:100DE00001E01B4E7160F0BD30B500228B071C0F77
:100DF0000F2303FA04F2164B08338C1053F82430F7
:100E00009343134C08348D1044F8253023468C103E
:100E100053F824308C07240F00FA04F423430C4CBD
:100E200008348D1044F8253030BD0A49DC310860A3
:100E30007047000000080140000C01400010014014
:100E40000014014000180140001C01400020014036
:100E50000000014000002042DF48006840F001002F
:100E6000DD49086008464068DC490840DA494860C6
:100E700008460068DA490840D74908600846006813
:100E800020F4802008600846406820F4FE00486096
:100E90004FF41F0088607047CF49096821F4803102
:100EA000CD4A11601146096821F480211160B0F526
:100EB000803F03D0B0F5802F0ED106E0C649096807
:100EC00041F48031C44A116007E0C349096841F424
:100ED000A021C14A116000E000BF00BF704710B5FB
:100EE00001460022002300204A11012A02D1BA4CF7
:100EF000236806E0022A02D1B74C236A01E0B64C0F
:100F0000636A01F01F02012494401C400CB10120CF
:100F100000E0002010BD38B500200090002400251E
:100F200000BF3120FFF7DBFF05460098401C009012
:100F30000098B0F5A06F01D0002DF2D03120FFF75E
:100F4000CEFF08B1012400E00024204638BD014650
:100F50000020A14A106820F0F80040EAC1001060AB
:100F60007047A04908607047024600209A4B5868B5
:100F700020F47C1042EA01031843974B58607047F5
:100F800098490866704701460020934A506820F04F
:100F900003000843506070478F48406800F00C0021
:100FA0007047014600208C4A506820F0F00008434A
:100FB0005060704701460020874A506820F4E06086
:100FC00008435060704701460020834A506820F46F
:100FD000605040EAC1005060704729B17E4A527AA1
:100FE00002437D4B5A7204E07B4A527A82437A4B29
:100FF0005A7270477B49D83108607047014600201B
:10100000754A506820F44040084350607047002102
:10101000714A20321170704A82F82010012802D0E3
:1010200004280AD104E001216B4A2032117005E046
:101030000521694A2032117000E000BF00BF7047EF
:101040006949086070476449096A0143624A11624C
:101050007047654944390860704730B50021002267
:10106000002400235C4D6D6805F00C0121B10429BA
:1010700005D0082923D105E05C4D056022E05B4DD9
:1010800005601FE0544D6D6805F47012524D6D6897
:1010900005F48034022505EB92421CB9544D5543AA
:1010A00005600BE04C4D6D6805F400351DB1504DE9
:1010B0005543056002E04D4D5543056002E04B4D40
:1010C000056000BF00BF444D6D6805F0F0010909DF
:1010D000484D6B5C0568DD4045603F4D6D6805F42B
:1010E000E061090A434D6B5C4568DD4085603A4D1F
:1010F0006D6805F46051C90A3E4D6B5C4568DD4082
:10110000C560354D6D6805F44041890B3A4D6B5C07
:10111000C568B5FBF3F5056130BD29B12E4A5269AA
:1011200002432D4B5A6104E02B4A526982432A4BF9
:101130005A61704729B1284A92690243264B9A6145
:1011400004E0254A92698243234B9A61704729B192
:10115000214AD2690243204BDA6104E01E4AD26977
:1011600082431D4BDA61704729B11B4AD2680243A2
:10117000194BDA6004E0184AD2688243164BDA60F1
:10118000704729B1144A12690243134B1A6104E0F3
:10119000114A12698243104B1A6170471249403953
:1011A000086070470F49C86470470B49C8717047A1
:1011B0000948406A40F0807007494862704701461C
:1011C0000020054A92680A400AB1012000E0002090
:1011D0007047014988727047001002400000FFF814
:1011E000FFFFF6FE000042428004424200127A00F5
:1011F00000093D00140000202400002010B5044622
:10120000FE48844208D10121C014FFF7ADFF002140
:10121000E014FFF7A9FFC4E0B4F1804F08D1012129
:101220000846FFF7AEFF00210120FFF7AAFFB8E054
:10123000F348844208D101210220FFF7A2FF0021D8
:101240000220FFF79EFFACE0EE48844208D1012166
:101250000420FFF796FF00210420FFF792FFA0E093
:10126000E948844208D101210820FFF78AFF0021C4
:101270000820FFF786FF94E0E448844208D101216A
:101280001020FFF77EFF00211020FFF77AFF88E093
:10129000DF48844208D101212020FFF772FF00219E
:1012A0002020FFF76EFF7CE0DA48844208D101215C
:1012B0004014FFF759FF00216014FFF755FF70E05D
:1012C000D548844209D10121C804FFF74DFF002110
:1012D0004FF40020FFF748FF63E0D048844209D173
:1012E00001210805FFF740FF00214FF48010FFF7B0
:1012F0003BFF56E0CA48844209D101214805FFF767
:1013000033FF00214FF40010FFF72EFF49E0C548DE
:10131000844208D101214020FFF733FF0021402003
:10132000FFF72FFF3DE0C048844208D10121802013
:10133000FFF727FF00218020FFF723FF31E0BB48A4
:10134000844208D101218015FFF71BFF0021A01561
:10135000FFF717FF25E0B648844209D101210804B0
:10136000FFF702FF00214FF48030FFF7FDFE18E089
:10137000B048844209D101214804FFF7F5FE00215D
:101380004FF40030FFF7F0FE0BE0AB48844208D189
:1013900001218804FFF7E8FE00214FF48020FFF7C9
:1013A000E3FE10BD00220288944B98420ED0994B68
:1013B00098420BD0B0F1804F08D0914B984205D0A5
:1013C000904B984202D0904B984204D14FF68F73C5
:1013D0001A404B881A438D4B984207D08C4B984249
:1013E00004D04FF6FF431A40CB881A4302808B8803
:1013F00083850B880385814B98420BD0854B98429F
:1014000008D08B4B984205D08A4B984202D08A4B29
:10141000984201D10B7A038601238382704770B50D
:10142000002400220023058C4FF6FE76354005840B
:10143000028C8388048B4FF68F752C40B51E2C4090
:101440000D882C43751E2A400D892A434D882A4356
:101450006A4DA8420BD06F4DA84208D0744DA842E7
:1014600005D0744DA84202D0734DA84213D14FF657
:10147000F7752A404D892A434FF6FB752A408D881F
:101480002A434FF6FF652B404FF6FF552B408D89C1
:101490002B43CD892B4383800483CD8885860284AA
:1014A00070BD70B5002400220023058C4FF6EF7646
:1014B00035400584028C8388048B48F6FF752C40E8
:1014C0004FF6FF452C400D884FF6FF7606EA0525BE
:1014D0002C434FF6DF752A400D8906EA05152A438D
:1014E0004D8806EA05152A43444DA84202D0494DCD
:1014F000A8421DD14FF67F752A404D894FF6FF76E1
:1015000006EA05152A434FF6BF752A408D8806EA7C
:1015100005152A434FF6FF352B404FF2FF752B4040
:101520008D8906EA85052B43CD8906EA85052B437F
:1015300083800483CD880587028470BD70B5002444
:1015400000220023058C4FF6FF6635400584028C8F
:101550008388848B4FF68F752C404FF6FC752C409A
:101560000D882C434FF6FF552A400D894FF6FF7624
:1015700006EA05252A434D8806EA05252A431F4D1C
:10158000A84202D0234DA8421DD14FF2FF752A4038
:101590004D894FF6FF7606EA05252A434FF6FF35BB
:1015A0002A408D8806EA05252A434EF6FF752B4012
:1015B0004DF6FF752B408D8906EA05152B43CD8925
:1015C00006EA05152B4383808483CD8885870284B2
:1015D00070BD70B5002200230024058C4EF6FF7606
:1015E00035400584038C8488828B48F6FF752A4039
:1015F0004FF6FF452A400D8820E00000002C0140F6
:101600000004004000080040000C004000100040B2
:101610000014004000340140004C014000500140E3
:101620000054014000180040001C00400020004011
:101630000040014000440140004801404FF6FF7661
:1016400006EA05252A434DF6FF752B400D8906EA6B
:1016500005352B434D8806EA05352B43FA4DA84244
:1016600002D0FA4DA84208D14BF6FF752C408D8967
:101670004FF6FF7606EA85152C4384808283CD8859
:10168000A0F84050038470BD828B4FF2FF331A40A4
:101690008283828B4FF6FF7303EA01231A4382830E
:1016A0007047F0B50C461546002200210026078C35
:1016B0004EF6FF7C07EA0C070784828B018C4FF6FD
:1016C000FF7707EA043640F6FF473A404FF6FF77C8
:1016D00007EA05273A434FF6FF7707EA03373A430D
:1016E000D94FB8420ED0D94FB8420BD0B0F1804F8D
:1016F00008D0D74FB84205D0D64FB84202D0D64F07
:10170000B84206D14DF6FF77394046F48057394349
:1017100005E047F6FF57394044F480573943828348
:101720000184F0BD828B4FF6F3731A408283828B63
:101730000A4382837047F0B50C461546002200210B
:101740000026078C4FF6FF6C07EA0C070784828B94
:10175000018C4FF6FF7707EA04264FF60C773A40E4
:101760004FF6FF7707EA03172F433A43B64FB842C5
:101770000ED0B64FB8420BD0B0F1804F08D0B44F66
:10178000B84205D0B34FB84202D0B34FB84206D1E9
:101790004FF6FF57394046F48077394305E04FF262
:1017A000FF57394044F48077394382830184F0BD88
:1017B000028B4FF2FF331A400283028B4FF6FF7306
:1017C00003EA01231A4302837047F0B50C4615461D
:1017D000002200210026078C4FF6EF7C07EA0C0759
:1017E0000784028B018C4FF6FF7707EA041640F658
:1017F000FF473A404FF6FF7707EA03373A434FF681
:10180000FF7707EA05273A438F4FB8420ED08F4F34
:10181000B8420BD0B0F1804F08D08D4FB84205D000
:101820008C4FB84202D08C4FB84206D14FF6DF77CA
:10183000394046F01007394305E04FF65F773940ED
:1018400044F01007394302830184F0BD028B4FF648
:10185000F3731A400283028B0A4302837047F0B588
:101860000C46154600220021068C4FF6FE773E40BE
:101870000684028B018C4FF60C7632407E1C06EA01
:1018800003162E433243704EB0420ED06F4EB0421C
:101890000BD0B0F1804F08D06D4EB04205D06D4EE8
:1018A000B04202D06C4EB04206D14FF6FD763140C8
:1018B00044F00106314305E04FF6F576314044F03F
:1018C0000106314302830184F0BD70B505460C4624
:1018D0005D4885420ED05D4885420BD0B5F1804F02
:1018E00008D05B48854205D05A48854202D05A4804
:1018F000854200D100E000BF208850B92389A2882A
:1019000061882846FFF7ABFFE1882846FFF79EFF76
:1019100025E0208804280AD12389A28861882846E6
:10192000FFF753FFE1882846FFF742FF17E02088C2
:1019300008280AD12389A28861882846FFF7FBFE80
:10194000E1882846FFF7EEFE09E02389A288618836
:101950002846FFF7A6FEE1882846FFF795FE70BDF2
:101960002DE9F04105460C4600260127608808B99C
:10197000022600E00026A088012801D1022700E00D
:1019800001272088A0B92389A28861882846FFF70B
:1019900066FFE1882846FFF759FF23893A4631461A
:1019A0002846FFF712FFE1882846FFF701FF13E002
:1019B0002389A28861882846FFF707FFE188284627
:1019C000FFF7F6FE23893A4631462846FFF747FFE0
:1019D000E1882846FFF73AFFBDE8F0810A884B8886
:1019E0001A438B881A43CB881A430B891A434B89B5
:1019F0001A438B891A43A0F8442070474FF6FF71B1
:101A0000818000210180C1804180017270470021E6
:101A1000018041808180C180018141818181C181BA
:101A20007047002101804180012181800021C18017
:101A3000018170470021018041808180C180018146
:101A40004181818170470000002C01400034014039
:101A50000004004000080040000C004021B1028852
:101A600042F00102028004E002884FF6FE731A4041
:101A70000280704731B1B0F8442042F40042A0F82F
:101A8000442005E0B0F84420C2F30E02A0F8442040
:101A900070471AB183890B43838102E083898B43AA
:101AA000838170478182704741EA0203A0F8483081
:101AB00070471AB183890B43838102E083898B438A
:101AC0008381704701894FF6F87211400181704798
:101AD0000A46002101894FF68F7319401143018195
:101AE000704730B504460D4629462046FFF7F0FF03
:101AF000208940F00700208130BD2DE9F0410446E7
:101B00000D4616461F46602D06D13B460122314642
:101B10002046FFF75AFE05E03B46012231462046AB
:101B2000FFF79DFE29462046FFF7D2FF208940F0AF
:101B300007002081BDE8F08130B50C460021018905
:101B4000C9B24FF6FF7505EA03251543254329431E
:101B5000018130BD2DE9F04105460E4617469846F5
:101B6000002443463A4631462846FFF7E5FF2C89D4
:101B70004FF6F870044044F007044FF68F700440AD
:101B800044F070042C81BDE8F081F0B504460D46A8
:101B900016461F463B46324629462046FFF7CCFFF5
:101BA000208940F480402081F0BD01858282704709
:101BB0000A46002101884FF68F73194011430180B6
:101BC0007047F0B50C4615461E4600210022002342
:101BD0000189028B038C4FF6F877394021434FF689
:101BE000FC473A4040F201173A434FF6DD773B405D
:101BF0004FF6FF7707EA06172F433B430181028325
:101C00000384F0BD0A460021018B4FF68F73194003
:101C10001143018370470A460021018B48F6FF7388
:101C200019404FF6FF7303EA0223194301837047FB
:101C30000A460021818B4FF68F731940114381832F
:101C400070470A460021818B48F6FF7319404FF612
:101C5000FF7303EA022319438183704721B102888D
:101C600042F08002028004E002884FF67F731A403F
:101C70000280704721B1828842F00402828004E031
:101C800082884FF6FB731A408280704721B18288A8
:101C900042F00802828004E082884FF6F7731A400F
:101CA0008280704721B1828842F00102828004E084
:101CB00082884FF6FE731A40828070470A460021E0
:101CC000018B4FF6F77319401143018370470A46A1
:101CD0000021018B4FF2FF7319404FF6FF7303EAA7
:101CE00002231943018370470A460021818B4FF676
:101CF000F77319401143818370470A460021818B95
:101D00004FF2FF7319404FF6FF7303EA02231943A2
:101D1000818370470A460021018B4FF6FB731940FF
:101D20001143018370470A460021018B4FF6FF33B0
:101D300019404FF6FF7303EA0223194301837047EA
:101D40000A460021818B4FF6FB73194011438183B2
:101D500070470A460021818B4FF6FF3319404FF63A
:101D6000FF7303EA02231943818370470A46002167
:101D7000018B4FF67F7319401143018370470A4668
:101D80000021018BC1F30E014FF6FF7303EA02231A
:101D90001943018370470A460021818B4FF67F73F8
:101DA00019401143818370470A460021818BC1F39A
:101DB0000E014FF6FF7303EA022319438183704734
:101DC0000A460021018C4FF6FD731940114301842E
:101DD00070470A460021018C4FF6F77319401143F2
:101DE000018470470A460021018C4FF6DF731940C9
:101DF0004FF6FF7303EA02131943018470470A4642
:101E00000021018C4FF67F7319404FF6FF7303EAF0
:101E100002131943018470470A460021018C4FF6D2
:101E2000FF5319404FF6FF7303EA0223194301845D
:101E300070470A460021018C4FF2FF7319404FF69C
:101E4000FF7303EA02231943018470470A46002105
:101E5000018C4DF6FF7319404FF6FF7303EA02330E
:101E600019430184704730B5002301248C40A3B28C
:101E7000048C9C430484048C02FA01F5ADB22C431B
:101E8000048430BD30B5002304248C40A3B2048CFC
:101E90009C430484048C02FA01F5ADB22C43048403
:101EA00030BD70B5034600200024184618300125C7
:101EB0008D40ACB21D8CA5431D8409B1082909D100
:101EC00000EB6100056825F07005056005681543A5
:101ED00005600EE00D1FC5F34E052844056825F486
:101EE000E045056005684FF6FF7606EA02263543B1
:101EF000056070BD21B1028842F00202028004E058
:101F000002884FF6FD731A400280704721B10288A3
:101F100042F00402028004E002884FF6FB731A408C
:101F20000280704721B1828842F08002828004E002
:101F300082884FF67F731A408280704702884FF67E
:101F4000F7731A40028002880A4302807047828831
:101F50004FF68F731A40828082880A4382807047CE
:101F600002894FF6F8731A40028102890A430281FE
:101F7000704702894FF67F731A40028102890A4333
:101F800002817047818470478185704781867047E0
:101F90000187704781877047A0F84010704702881A
:101FA0004FF6FF431A40028002880A4302807047BE
:101FB0000146888E70470146088F70470146888F1A
:101FC00070470146B1F8400070470146888C704761
:101FD0000146088D704702460020138A0B400BB162
:101FE000012000E000207047CA430282704730B5EC
:101FF0000246002000230024158A05EA0103958982
:1020000005EA010413B10CB1012000E0002030BD4D
:10201000CA4302827047000010B50446FB48844260
:1020200009D101218803FFF79FF800214FF4804078
:10203000FFF79AF832E0F648844209D101214804BA
:10204000FFF79FF800214FF40030FFF79AF825E0E2
:10205000F048844209D101218804FFF792F8002159
:102060004FF48020FFF78DF818E0EB48844209D147
:102070000121C804FFF785F800214FF40020FFF785
:1020800080F80BE0E548844208D101210805FFF7FC
:1020900078F800214FF48010FFF773F810BD2DE998
:1020A000F04786B005460E460024A24600BFA14672
:1020B0000027B08900B100BF2F462C8A4CF6FF7074
:1020C0000440F08804432C82AC894EF6F31004409F
:1020D000B08831890843718908430443AC81AC8AD4
:1020E0004FF6FF400440B0890443AC8201A8FEF7DC
:1020F000B4FFC648874202D1DDF810A001E0DDF848
:102100000CA0A88900F4004040B10AEBCA0000EB23
:102110000A1031684900B0FBF1F807E00AEBCA0089
:1021200000EB0A1031688900B0FBF1F86420B8FBBD
:10213000F0F004012009642101FB1089A88900F452
:10214000004040B1322000EBC900B0FBF1F000F0DC
:102150000700044308E0322000EB09106421B0FBC3
:10216000F1F000F00F0004432C8106B0BDE8F087C9
:102170004FF41651016000218180C18001810C2142
:10218000418100218181704710B502460020108AEC
:102190004FF2FF0318400B884C8823438C8823435D
:1021A000CC8823431843108210BD00210180418058
:1021B0008180C180704721B1828942F400528281BE
:1021C00004E082894DF6FF731A4082817047F0B5B2
:1021D0000346002400260025002040F66A17B94275
:1021E00000D100BF1846C1F3421401F01F060127B9
:1021F00007FA06F5012C01D10C3004E0022C01D1C4
:10220000103000E014301AB107682F43076002E075
:102210000768AF430760F0BD1AB1838A0B4383821E
:1022200002E0838A8B4383827047028A4FF6F07301
:102230001A400282028A0A430282704782894FF260
:10224000FF731A40828182890A438281704721B1DB
:10225000828942F00202828104E082894FF6FD7396
:102260001A4082817047028A4FF6DF731A40028259
:10227000028A0A430282704721B1028A42F48042F4
:10228000028204E0028A4BF6FF731A400282704712
:10229000C1F308028280704701468888C0F30800B5
:1022A0007047818941F0010181817047028BD2B270
:1022B0000283028B42EA012202837047028B02F4FE
:1022C0007F420283028B0A430283704721B1828AD4
:1022D00042F02002828204E0828A4FF6DF731A40C5
:1022E0008282704721B1828A42F01002828204E029
:1022F000828A4FF6EF731A408282704721B1828A38
:1023000042F00802828204E0828A4FF6F7731A4094
:102310008282704721B1828942F40042828103E0C7
:102320008289C2F30E028281704721B1828A42F40F
:102330000062828204E0828A4FF2FF731A40828236
:102340007047828A4FF6FB731A408282828A0A4360
:102350008282704721B1828A42F00202828204E0C6
:10236000828A4FF6FD731A4082827047024600202F
:10237000B1F5007F00D100BF13880B400BB10120E5
:1023800000E00020704701F40072B2F5007F00D138
:1023900000BFCA430280704770B502460024002384
:1023A0000025002040F66A16B14200D100BFC1F3FB
:1023B000421501F01F03012606FA03F3012D02D195
:1023C0009689334006E0022D02D1168A334001E09F
:1023D000968A33400C12012606FA04F4168834401B
:1023E00013B10CB1012000E0002070BD10B5002237
:1023F000002340F66A14A14200D100BF0A12012452
:102400009440A3B2DC43048010BD000000380140BA
:102410000044004000480040004C00400050004094
:10242000002100BF48E000BF00BF00BF00BF00BFE9
:1024300000BF00BF00BF00BF00BF00BF00BF00BFA4
:1024400000BF00BF00BF00BF00BF00BF00BF00BF94
:1024500000BF00BF00BF00BF00BF00BF00BF00BF84
:1024600000BF00BF00BF00BF00BF00BF00BF00BF74
:1024700000BF00BF00BF00BF00BF00BF00BF00BF64
:1024800000BF00BF00BF00BF00BF00BF00BF00BF54
:1024900000BF00BF00BF00BF00BF00BF00BF00BF44
:1024A00000BF00BF00BF00BF00BF00BF00BF00BF34
:1024B00000BF00BF00BF491C8142B4D3704710B5B4
:1024C00003464FF47A7003FB00F42046FFF7A8FFA1
:1024D00010BD10B502460023F7480088884207DA8D
:1024E000F54800884FF6FF742044401A83B203E099
:1024F000F1480088401A83B202EB82004000984203
:1025000001DC012010BD0020FCE7F8B505460E46B1
:10251000174604200090FEF732F83520FEF7CAFA7D
:102520002846FEF771F800909DF80000042813D1AA
:10253000002408E056F824102846FEF735F90090EC
:102540002D1D601CC4B2BC4203DA9DF800000428B3
:10255000F0D0FEF720F801E00020F8BD9DF8000063
:10256000042801D10120F8E70020F6E710B50B465A
:10257000002105E0046843F82140001D4C1CE1B235
:102580009142F7DB10BD70B5002400250020CB4937
:10259000087000BF3CE0CA4800684FF4806101FB4E
:1025A0000400C84908600522C749C6480068FFF70B
:1025B000DDFFC5480088C549098888421EDD002026
:1025C000C14908804860C24800780872C148007854
:1025D0004872C14800788872C0480078C872C04804
:1025E00000780873BF480088C881BF480068086148
:1025F0000522B4480068FFF788FF07E0B24840684A
:10260000A84203D9B0484568AC480470601CC4B205
:10261000202CC0DBAA480068A84909784FF48062E2
:1026200002FB0100A74908600522A749A5480068E8
:10263000FFF79CFFA4480088AC490880A248406886
:10264000AB490860A048007A08B1012000E00020F2
:102650009F4908709C48407A08B1012000E00020A2
:102660009C4908709848807A9B4908709648C07ABF
:102670009A4908709448007B994908709248C0892B
:1026800098490880904800699749086070BD10B566
:10269000002496480088401C9449088094480068AB
:1026A000401C9349086091480088884909888842FD
:1026B00012DD01208D4908808248006800F58060A5
:1026C00080490860084600688A490968884203D33F
:1026D0007B4800687B4908607D4800787A49087229
:1026E0007C48007848727C48007888727B48007883
:1026F000C8727B48007808737A480088C8817A4895
:102700000068086122E0794800886F4908807848AD
:102710000068486005226B480068FFF7F6FE044633
:102720009CB90120714908806648006800F5806006
:1027300064490860084600686E490968884205D304
:102740005F4800685F49086000E000E0DBE700BF29
:1027500010BD10B56848007818B901F022FC67492F
:1027600008606648006810BD70B505460C4615B196
:10277000012D0AD104E0214661A002F0A1F904E094
:102780002146604801F0FAFA00BF00BF80212046D0
:1027900001F0CDFD70BD00B587B0182101A801F092
:1027A000C6FD59A101A802F09BF901A9554801F005
:1027B000E5FA6420FFF783FE182101A801F0B7FDB8
:1027C000524A53A101A802F08BF901A94D4801F02A
:1027D000D5FA6420FFF773FE182101A801F0A7FDC8
:1027E0004EA101A802F07CF901A9464801F0C6FA01
:1027F0004FF4FA70FFF763FE07B000BD13204A499B
:102800000870C820487008208870A020C870102068
:1028100008717D204871182088716420C8711820C3
:10282000087250204872202088724620C8722020EA
:1028300008733C204873282088733220C8733020E6
:10284000087428204874402088741E20C8745020C2
:10285000087518204875602088751420C875782080
:10286000087610204876902088760D20C876A02023
:1028700008770A204877B02088770820C877C020DA
:1028800081F82000062081F82100D02081F8220064
:10289000052081F82300E02081F82400042081F83D
:1028A0002500F02081F83000032081F82700F8206F
:1028B00081F82800704700005C0000206C000020B8
:1028C00078000020800000209C0000206E00002086
:1028D0002F000020300000203200002034000020B3
:1028E000360000206000002044000020700000201E
:1028F000740000207C0000204000002058000020D0
:10290000257300000044004041540000B201002043
:1029100041542B4E414D453D2573000041542B52EF
:102920004553455400000000B000002070B5054636
:102930000C46002D6FD1082C3CD006DC012C09D0B0
:10294000022C17D0042C65D124E0102C42D0202C6E
:1029500060D14FE04FF40041F848FEF7DEF94FF444
:102960008041F748FEF7D9F94FF40051F448FEF7DB
:10297000D4F94FE04FF40041F048FEF7CEF94FF4A0
:102980008041EF48FEF7C9F94FF40051EC48FEF7DB
:10299000C2F93FE04FF40041E848FEF7BEF94FF4BA
:1029A0008041E748FEF7B7F94FF40051E448FEF7DD
:1029B000B4F92FE04FF40041E048FEF7AEF94FF4D0
:1029C0008041DF48FEF7A7F94FF40051DC48FEF7DD
:1029D000A2F91FE04FF40041D848FEF79CF94FF4EC
:1029E0008041D748FEF799F94FF40051D448FEF7DB
:1029F00094F90FE04FF40041D048FEF78CF94FF402
:102A00008041CF48FEF787F94FF40051CC48FEF7DC
:102A100082F900BF00BF70BDCA490978884201DD54
:102A2000C84908780A2844D2DFE800F043050C13AF
:102A30001A21282E353C0121C34A11707D21C34A39
:102A4000117036E00221C04A11703221BF4A117064
:102A50002FE00321BC4A11701821BC4A117028E0F4
:102A60000421B94A11700D21B84A117021E00521E5
:102A7000B54A11700821B54A11701AE00621B24A10
:102A80001170B24A117014E00721AF4A117005218C
:102A9000AE4A11700DE00821AB4A11700421AB4A17
:102AA000117006E00921A84A11700321A74A11708C
:102AB00000BF00BF704700B50020A5490870A248BC
:102AC0000078FFF7A9FF00BDA2480068A24908608E
:102AD000704710B50020A1490870A1484078A1496D
:102AE00008709F488078A0490860A048007820B10D
:102AF00001219348FEF711F903E001219048FEF708
:102B00000AF99B48007838B14FF400618C48FEF711
:102B100002F90020964908706420FFF7D0FC0020DD
:102B20009449088001208A49087010BD10B5002022
:102B30008A4908708A4840788A49087088488078AD
:102B4000894908608948007820B101217C48FEF756
:102B5000E2F803E001217A48FEF7DFF884480078C4
:102B600038B14FF400617648FEF7D5F8002080496F
:102B700008706420FFF7A3FC00207E490880022033
:102B80007349087010BD10B50446724800687A4950
:102B9000097890FBF1F020447749097848436E4961
:102BA00008606B480078012805D06A4800687349BE
:102BB0000860FFF78EFF10BD10B504466548006839
:102BC0006D49097890FBF1F0001B6B490978484387
:102BD000614908605E480078022805D05D480068B9
:102BE00066490860FFF7A2FF10BD10B55A4800689B
:102BF00062490968884202DDFFF76BFF01E0FFF7D9
:102C000095FF10BD10B5044644B94FF400614C481F
:102C1000FEF781F800205649087007E04FF4006184
:102C20004748FEF77AF801205149087010BD7047F7
:102C30000146FF2902DA481CC0B270470020FCE7B9
:102C40002DE9F04105460C460027002620214C487E
:102C500001F06DFB00BF2078285C232807D1012FED
:102C600004D1002046498855022700E00327012FA0
:102C700005D12078285C42498855701CC6B220785E
:102C8000285C3A2801D1012700262078FFF7D0FFE1
:102C90002070012FDFDD00BF00BF3046BDE8F081AE
:102CA0002DE9F04788B006460C46154629462046D1
:102CB000FFF7C6FF012803DA002008B0BDE8F0875F
:102CC0008021304801F033FB2D48007846286FD131
:102CD0002B4840785A286CD01DDC4D286AD010DC77
:102CE000422868D006DC2B2866D02D2879D03F28D2
:102CF00074D152E0442872D0492871D04C28F7D1C1
:102D00000CE150380A2869D2DFE800F0F0EFEE68F5
:102D10006868ED68ECEB722874D035DC6C2872D0F2
:102D200006DC612873D062286FD06928E0D1EAE020
:102D30006D286BD07028DBD145E100000008014010
:102D4000000C014036000020340000203800002034
:102D500040000020440000204C0000203F000020E4
:102D6000B00000203700002050000020300000207C
:102D70002D0000205E0000203200002048000020CE
:102D8000B0010020D001002074380728BBD2DFE852
:102D900000F0F225F1F0EFEEED00FD48FDA1026834
:102DA000FE4801F09DFEFD493046FFF7DDFCACE238
:102DB000ACE2DAE1C6E054E0F9480078012807D037
:102DC000F8A1F64801F08CFEF4493046FFF7CCFC40
:102DD0004FF4FA70FFF7D7FE97E202E08CE256E07C
:102DE00070E0EF480078022807D0F0A1EB4801F02E
:102DF00077FEEA493046FFF7B7FC4FF4FA70FFF769
:102E0000DBFE82E21FE192E001E035E0A3E0FFF7A4
:102E1000A0FC824601F026FB07468846E54800688C
:102E2000E549097890FBF1F9E4480078E44909782C
:102E3000E44A1278E04B1B78CDE90332CDE9051066
:102E4000E1480078CDE900780290D54803784A46F9
:102E5000DEA1D24801F044FED0493046FFF784FCA1
:102E600053E2CF480278E1A1CC4801F039FECB49CA
:102E70003046FFF779FC48E2DEA1C84801F030FE99
:102E8000C6493046FFF770FCFFF785FC3DE2DBA149
:102E9000C24801F025FEC1493046FFF765FCFFF747
:102EA00013FE02E06420FFF70AFBBD48007800280B
:102EB000F8D1D44801F046FABF4909784843BD49E2
:102EC000086022E2D0A1B54801F00AFEB3493046BD
:102ED000FFF74AFCCB48801E8078312807D10120BB
:102EE00006E022E1F8E0CAE088E07CE044E000206F
:102EF000B2490978484028B1B048007880F0010014
:102F0000AE49087001E2AD480278C1A1A34801F0C2
:102F1000E7FDA2493046FFF727FCF6E1BEA19F4836
:102F200001F0DEFD9D493046FFF71EFCEDE1A448AF
:102F30000278BBA1994801F0D3FD98493046FFF7CC
:102F400013FCE2E1B8A1954801F0CAFD934930466F
:102F5000FFF70AFCD9E198480278B5A18F4801F043
:102F6000BFFD8E493046FFF7FFFBCEE1B9E1F1E04E
:102F7000D0E0A1E095E071E0AFA1884801F0B0FD9C
:102F800086493046FFF7F0FBFFF79EFD02E0642024
:102F9000FFF795FA824800780028F8D1994801F0A7
:102FA000D1F9854909784843A549086081480068F6
:102FB000A449086008460068A1490968884201D010
:102FC000FFF713FEA1E17B4800687B49097890FB7D
:102FD000F1F73A469CA1714801F082FD6F493046F5
:102FE000FFF7C2FB91E1FFF76FFD99A16B4801F07C
:102FF00077FD6A493046FFF7B7FB86E196A167483F
:1030000001F06EFD65493046FFF7AEFBFFF75CFD52
:1030100002E06420FFF753FA614800780028F8D1F5
:103020007848801E8078312801D1012000E00020FE
:1030300065490978484028B16348007880F001006C
:103040006149087061E16048027885A1534801F048
:1030500047FD52493046FFF787FB56E1FFF779FB02
:10306000814601F0FFF907463A460B467EA14B48E0
:1030700001F036FD49493046FFF776FB45E17DA179
:10308000464801F02DFD45493046FFF76DFB5D4890
:1030900001F058F97949087008460078FFF7BCFC40
:1030A00033E14848027876A13C4801F019FD3B49DC
:1030B0003046FFF759FB28E17348006800907348D9
:1030C00003887348027873A1344801F009FD33493D
:1030D0003046FFF749FB18E172A1304801F000FDCE
:1030E0002E493046FFF740FB464801F02BF9634973
:1030F00008700846007800280BDD084600780A288A
:1031000007DA08460078694908702E480078FFF70A
:1031100083FCFAE06548027865A1204801F0E0FCF4
:103120001E493046FFF720FBEFE063A11B4801F08A
:10313000D7FC1A493046FFF717FB324801F002F975
:103140005F490988884204D02E4801F0FBF85C49A9
:103150000880DAE05A4802885AA1104801F0C0FC01
:103160000E493046FFF700FBCFE058A10B4801F0B5
:10317000B7FC0A493046FFF7F7FA224801F0E2F8B7
:1031800054490988884201D01E48A5E0A8E0000003
:10319000280000203A3F2573230D0A00D0010020AB
:1031A000400000203A2B230D0A0000003A2D230D89
:1031B0000A00000044000020320000202E00002001
:1031C0002F00002034000020300000203A612564E8
:1031D0007E25647E252E32667E25647E25647E25CE
:1031E000647E25647E2564230D0A00003A4225642E
:1031F000230D0A003A62230D0A0000003A44230D11
:103200000A000000B20100203A49230D0A00000024
:103210003A692564230D0A003A4C230D0A00000088
:103220003A6C2564230D0A003A4D230D0A00000074
:103230003A6D2564230D0A003A50230D0A00000060
:103240004C000020480000203A702564230D0A003D
:103250003A51230D0A0000003A52230D0A000000E3
:103260003A722564230D0A003A74252E3266230D26
:103270000A0000003A56230D0A0000003500002025
:103280003A762564230D0A007400002070000020A7
:103290006C0000203A7725647E25647E2564230D2A
:1032A0000A0000003A58230D0A00000036000020F2
:1032B0003A782564230D0A003A59230D0A000000CC
:1032C000600000203A792564230D0A003A5A230D44
:1032D0000A0000006200002001F034F899490880DB
:1032E00013E09848028898A1994801F0F9FB9849A1
:1032F0003046FFF739FA08E096A1954801F0F0FB57
:1033000093493046FFF730FA00BF00BF0120D4E4F4
:1033100010B500244FF480719048FDF7E2FC0128BD
:1033200001D1601CC4B280218C48FDF7DAFC012871
:1033300001D1A01CC4B2204610BD10B5FFF7E8FFB4
:10334000044687480078844234D1FCB98548007827
:10335000E0B1854801884FF47A70FFF7BAF8A8B158
:103360008248007882490978884205DA7F480078E7
:10337000401C7E49087002E001207C4908707B48AF
:103380000078FFF749FB002076490870012C04D132
:103390004FF4FA70FFF7F7FB3AE0022C04D14FF438
:1033A000FA70FFF709FC33E0032C31D100206D499E
:1033B00008702DE06F4804706420FFF780F8FFF775
:1033C000A7FF04466B480078844221D1644804700A
:1033D00069480088644908802CB9FFF775FB012013
:1033E0006049087014E0012C04D14FF4FA70FFF723
:1033F000CAFB0DE0022C04D14FF4FA70FFF7DCFB9E
:1034000006E0032C04D1FFF75FFB0020554908704C
:1034100010BD88B0FCF717FF00F0AAFE472163201B
:1034200000F004FE00F056FF00F063FB00F0B1FD79
:1034300000F0B7FD4FF47A70FFF741F8FFF7A3F8FB
:10344000FFF7DCF9FFF737FB4C480078FFF7DAFBB2
:1034500076E009E04A480078401E49490870494A28
:1034600049490020FFF71CFC454800780028F1DCA2
:10347000FFF763FF4148007818B34448007800BB69
:1034800043480078E8B9434801884FF47A70FFF761
:1034900020F840B140480088401C3F490880364829
:1034A00000883C4908803C4800883C49098888429B
:1034B00007DB4FF400612948FDF72FFC0120334959
:1034C00008702048008800283ADD354801881D48EA
:1034D0000088FEF7FEFF002832D0FFF73AF90746D2
:1034E00000F0C0FF05460E462E4800682E490978B8
:1034F00090FBF1F42D480078204909781B4A127896
:10350000294B1B78CDE90332CDE905102848007816
:10351000CDE9005602901E4803782246AFF254319E
:103520000B4801F0DDFA0A49AFF62C4001F0C8FA69
:103530008021074800F0FBFE0F48008818490880EA
:1035400087E70000620000203A7A2564230D0A0014
:10355000D00100203A55230D0A000000000C014064
:10356000390000203B0000203C00002034000020F7
:10357000360000203A0000205C0000202F000020D0
:103580008600002084000020500200202D00002032
:1035900040000020640000205E0000206000002049
:1035A0006600002044000020320000202E00002091
:1035B00030000020704700BFFEE700BFFEE700BFFD
:1035C000FEE700BFFEE7704770477047704710B5D1
:1035D0000121D048FEF70BFD00286AD00121CD481B
:1035E000FEF702FDCC480088401CCB490880CB4840
:1035F0000078012875D1CA480068CA49096888421C
:1036000066DAC9480078012804D14021C748FDF78F
:1036100082FB0CE0C4480078022808D14021C3484E
:10362000FDF77BFBBE480068401CBD490860BE48F2
:103630000078BF490978884203DB0120BA49087045
:1036400004E0B9480078401CB7490870B8480078D1
:10365000B849097888422DDDB1480068B649096843
:10366000401AB6490968884223DBB5480078401CF7
:10367000B349087008460078012101EB4000B149C8
:10368000085CB1490870AA4800780978884210DDC2
:10369000AB480078022101EB4000AA49085CA74929
:1036A00008609F480068A4490860A7480078A049BE
:1036B00008708EE09E4800789E4909788842F8DAC2
:1036C0009C4800789A49087000209D49087080E065
:1036D000914800889D49088000209049087078E052
:1036E000FFE78E480078022873D18D4800688D4925
:1036F0000968884266DD8C480078012804D14021A1
:103700008A48FDF708FB0CE087480078022808D1BA
:1037100040218648FDF701FB81480068401E804932
:1037200008608148007882490978884203DB0120DB
:103730007D49087004E07C480078401C7A49087094
:103740007B4800787B49097888422DDD7A480068FB
:1037500073490968401A79490968884239DB784811
:103760000078401C7649087008460078012101EB7A
:1037700040007449085C744908706D480078097805
:10378000884226DD6E480078022101EB40006D4939
:10379000085C6A49086062480068674908606A48CE
:1037A00000786349087014E061480078614909783D
:1037B00088420EDA5F4800785D4908700020604951
:1037C000087006E05448008860490880002053498A
:1037D000087010BD10B501218807FEF708FC30B154
:1037E00001218807FEF714FC59A001F069F910BD0A
:1037F00010B501215948FEF7FAFB30B101215748B5
:10380000FEF706FC56A001F05BF910BD10B540F2C2
:1038100025515648FEF7C0FD80B35448FEF73CFDE5
:103820005349544A12788854084652490978405CF2
:103830003A2803D14F4800784F4908704D48007826
:10384000FFF7F6F94D490978884206D14A480078D1
:103850004A49087000204A49087045484549097896
:10386000405C232804D146480078401C4449087035
:1038700040480078FFF7DCF93E49087010BD10B5EC
:1038800040F225513F48FEF787FD80B33D48FEF7E3
:1038900003FD3D493D4A1278885408463B49097862
:1038A000405C3A2803D139480078394908703748D4
:1038B0000078FFF7BDF937490978884206D13448C6
:1038C0000078344908700020334908702E482F4989
:1038D0000978405C232804D12F480078401C2E49E9
:1038E00008702A480078FFF7A3F92849087010BD2E
:1038F00010B50420FCF70AFE58B12848007828B912
:10390000FEF7C5FE26A12AA001F0DAF80420FCF794
:103910000EFE10BD002C01405C0000204000002085
:10392000440000204C0000208800002000080140D6
:103930003700002038000020480000205000002000
:103940003F000020B000002089000020640000201B
:1039500054696D6572320D0A0000000000040040D9
:1039600054696D6572330D0A000000000038014093
:1039700050020020900000208A00002084000020D7
:1039800086000020004400405003002091000020E9
:103990008B00002085000020870000202E000020E2
:1039A0003A6F506F7765724F6666230D0A0000000C
:1039B0002573000030B50146B1F1807F01D30120AD
:1039C00030BD21F07F40401E4FF0E0225061501783
:1039D0000F22002807DA13071D0E374B00F00F04E3
:1039E000241F1D5503E013071C0E344B1C5400BF4D
:1039F00000204FF0E0229061072010610020DFE7F7
:103A000010B52F4800682F49B0FBF1F42046FFF7AE
:103A1000D1FF08B100BFFEE710BD31B528480068EE
:103A20002849B0FBF1F52846FFF7C4FF002408E061
:103A300000BF4FF0E020006900F480300028F8D08B
:103A4000641C00988442F3D34FF0E020006920F01A
:103A500001004FF0E021086138BD01B50098FFF783
:103A6000DCFF08BD1848006820B117480068401EF8
:103A700015490860704731B5114800684FF47A71F4
:103A8000B0FBF1F52846FFF795FF002408E000BFE2
:103A90004FF0E020006900F480300028F8D0641C6A
:103AA00000988442F3D34FF0E020006920F0010039
:103AB0004FF0E021086138BD18ED00E000E400E0BF
:103AC0000000002040420F008C00002008B54FF499
:103AD000C060FCF739FC25208DF8000001208DF82E
:103AE00001008DF802008DF803006846FCF731FCF8
:103AF00008BD00B585B001210420FDF71BFB0121A5
:103B00008803FDF717FB4FF40070ADF81000182084
:103B10008DF8130003208DF8120004A95648FDF714
:103B20004DF84FF48060ADF8100004208DF81300BC
:103B300004A95148FDF742F84FF4165000900020B8
:103B4000ADF80400ADF80600ADF80800ADF80C00C3
:103B50000C20ADF80A0069464848FEF7A0FAFFF7C6
:103B6000B5FF012240F225514448FEF730FB012108
:103B70004248FEF720FB05B000BD70B504460D4677
:103B800029462046FEF784FB00BF80212046FEF731
:103B9000EDFB0028F9D070BD2DE9F04107460D4638
:103BA0001646002405E0295D3846FFF7E6FF601C55
:103BB000C4B2B442F7DB00BF40213846FEF7D6FB63
:103BC0000028F9D0BDE8F08170B506460C46002506
:103BD00000BF615D3046FFF7D0FF6D1C605D0028BF
:103BE000F7D100BF40213046FEF7C0FB0028F9D0D6
:103BF00070BD2DE9F04105460C46260AE7B2314674
:103C00002846FEF745FB00BF80212846FEF7AEFBA5
:103C10000028F9D039462846FEF73AFB00BF80213C
:103C20002846FEF7A3FB0028F9D0BDE8F08100206C
:103C3000134908701349124A12788854704770B5B6
:103C400004460D46E1B20D48FEF722FB00BF80217D
:103C50000A48FEF78BFB0028F9D0204670BD10B54E
:103C6000044600BF20210548FEF780FB0028F9D05C
:103C70000248FEF711FB10BD00080140003801406A
:103C8000900000205002002008B54FF4C060FCF7FF
:103C90005BFB26208DF8000001208DF8010000203C
:103CA0008DF8020001208DF803006846FCF751FBF7
:103CB00008BD00B585B001214804FDF748FA01218F
:103CC0000420FDF737FA0420ADF8100018208DF815
:103CD000130003208DF8120004A93A48FCF76EFF88
:103CE0000820ADF8100004208DF8130004A9354811
:103CF000FCF764FF4FF4165000900020ADF804006C
:103D0000ADF80600ADF80800ADF80C000C20ADF8D9
:103D10000A0069462C48FEF7C2F9FFF7B5FF0122F9
:103D200040F225512848FEF752FA01212648FEF7B5
:103D300042FA40212448FEF726FB05B000BD70B5CD
:103D400004460D4629462046FEF7A2FA00BF802110
:103D50002046FEF70BFB0028F9D070BD2DE9F0419D
:103D600007460D461646002400BF295D3846FFF77A
:103D7000E6FF641CB442F8D3BDE8F08170B5064696
:103D80000C46002500BF615D3046FFF7D8FF6D1C73
:103D9000605D0028F7D170BD01460C4800780880AE
:103DA0000B48704740F201100021084A117005E0ED
:103DB0000022411E89B20846054B5A540028F7D10B
:103DC00070470000000801400044004091000020BE
:103DD0005003002008B501210420FDF7ABF94FF492
:103DE0008040ADF8000010208DF8030003208DF80E
:103DF000020069468B48FCF7E1FE4FF48041894898
:103E0000FCF789FF08BD08B54FF48040ADF800000D
:103E100048208DF8030069468248FCF7CFFE08BDB4
:103E200008B54FF48040ADF8000010208DF8030075
:103E300003208DF8020069467A48FCF7BFFE08BDF2
:103E400010B5FFF7EDFF4FF480417648FCF765FFB2
:103E500040F2EE20FFF701FE4FF480417148FCF77D
:103E60005AFF0F20FFF7F9FD10BD10B50024FFF732
:103E7000CAFF04E0601CC4B20120FFF7EEFD4FF45E
:103E800080416848FCF72DFF08B1642CF2DB642CFC
:103E900001DB012010BD002404E0601CC4B201203D
:103EA000FFF7DBFD4FF480415E48FCF71AFF08B9CD
:103EB000F02CF2DBF02C01DB0120EBE70020E9E73E
:103EC00010B5FFF7ADFF4FF480415648FCF725FFD2
:103ED0000A20FFF7C2FDFFF796FF4FF480415148DB
:103EE000FCF7FFFE012801D1012400E000242D2071
:103EF000FFF7B3FD204610BD70B50026002408E092
:103F0000FFF7DEFF054605FA04F03043C6B2601C39
:103F1000C4B2082CF4DB304670BD70B50446FFF720
:103F20007FFF002526E004F00106641086B14FF4FF
:103F300080413C48FCF7F1FE0820FFF78EFD4FF46E
:103F400080413848FCF7E7FE3A20FFF786FD0FE096
:103F50004FF480413348FCF7E0FE4620FFF77DFD3B
:103F60004FF480412F48FCF7D6FE0220FFF775FD85
:103F7000681CC5B2082DD6DB70BD10B5FFF760FF19
:103F8000FFF773FFCC20FFF7C8FF4420FFF7C5FF02
:103F900010BD10B5FFF71EFFFFF752FFFFF765FFDB
:103FA00010BD2DE9F05FFFF74BFFFFF75EFFCC2060
:103FB000FFF7B3FF4420FFF7B0FFFFF741FFFFF724
:103FC00054FFCC20FFF7A9FFBE20FFF7A6FFFFF7A5
:103FD00093FF8346FFF790FF82464FEA0A2004B220
:103FE00044EA0B04002C0DDAE043401C00F029FAEF
:103FF000074600220C4B00F0B2F9054600F045FAE6
:1040000081460BE0204600F01CFA07460022064BD2
:1040100000F0A5F9054600F038FA81464846BDE8AB
:10402000F09F0000000801400000B03F7FB505464A
:104030000C460121C802FDF77DF8ADF80850ADF837
:1040400004400020ADF80A00ADF806008DF80C0021
:1040500001A94548FDF7A6F9012211464248FDF79E
:1040600018FD4FF4E060FCF76FF919208DF800009F
:1040700000208DF8010001208DF802008DF803006A
:104080006846FCF766F901213748FDF7E7FC7FBD7C
:104090007FB505460C4601210846FDF758F8012179
:1040A0008807FDF7B5FFADF80850ADF804400020D3
:1040B000ADF80A00ADF8060001A94FF08040FDF709
:1040C00071F9012211469007FDF7E3FC4FF4E0601F
:1040D000FCF73AF91C208DF8000000208DF8010053
:1040E00002208DF8020001208DF803006846FCF7DD
:1040F00030F901218807FDF7B1FC7FBD7FB505468A
:104100000C4601210220FDF722F801211748FDF796
:104110007FFFADF80850ADF804400020ADF80A006C
:10412000ADF8060001A91148FDF73CF9012211463E
:104130000E48FDF7AEFC4FF4E060FCF705F91D20DA
:104140008DF8000000208DF8010003208DF802009A
:1041500001208DF803006846FCF7FBF801210348B5
:10416000FDF77CFC7FBD0000002C014000040040F6
:104170000EB501210D20FCF7DDFF01214848FCF7B9
:10418000EEFD10208DF80B0048208DF80700282048
:104190008DF8030003208DF80A004FF48070ADF80D
:1041A000040001A93F48FCF709FD8020ADF8040098
:1041B00001A93C48FCF702FD1020ADF8080002A957
:1041C0003848FCF7FBFC2020ADF8080002A9354870
:1041D000FCF7F4FC4FF40060ADF8080002A9314888
:1041E000FCF7ECFC4FF48060ADF8040001A92D4809
:1041F000FCF7E4FC0120ADF8080002A92948FCF70F
:10420000DDFC8020ADF8080002A92748FCF7D6FCA9
:104210004020ADF8080002A92348FCF7CFFC4FF47A
:104220000050ADF8080002A91E48FCF7C7FC4FF487
:104230008040ADF8080002A91A48FCF7BFFC4FF413
:104240000040ADF8080002A91748FCF7B7FC0820A9
:10425000ADF8080002A91448FCF7B0FC4FF4006167
:104260001048FCF75AFD01210E48FCF756FD80214D
:104270000D48FCF752FD40210B48FCF74EFD4FF472
:1042800000510848FCF749FD4FF480410548FCF710
:1042900044FD4FF400410448FCF73FFD0EBD000013
:1042A00000043000000C01400008014008B54FF444
:1042B000C060FCF749F808208DF8000000208DF858
:1042C00001008DF8020001208DF803006846FCF71C
:1042D00040F808BD0EB501210920FCF72BFFFFF7C0
:1042E000E5FF0420ADF8080048208DF80B0002A976
:1042F0000A48FCF763FC02210020FCF775FD04204E
:10430000009000208DF804000C208DF8050001209D
:104310008DF806006846FCF793F80EBD00080140D2
:10432000D2B201E000F8012B491EFBD270470022F7
:10433000F6E710B513460A4604461946FFF7F0FFA4
:10434000204610BD70B5064600F0DEFB0468054649
:104350000A220021304600F0FBF82C6070BD2DE9E8
:10436000FE4F81EA030404F0004421F00041009470
:104370004FF0000B23F0004350EA01045ED052EAF4
:1043800003045BD0C3F30A54C1F30A552C44A4F2CE
:10439000F3340194A0FB0254C1F3130141F48011E2
:1043A000C3F3130343F4801301FB024400FB034EE9
:1043B000840A970A44EA815447EA8357A4FB0768B2
:1043C00002958D0A05FB07854FEA932C04FB0C54DC
:1043D0002705029D4FEA065847EA1637B5EB080550
:1043E0006EEB070C870E920E47EA811742EA8312A2
:1043F000A7FB0201B6EB0B0164EB00042B0D43EAB3
:104400000C335E1844EB1C50DA465146E7FB0201C0
:10441000C5F313044FEA0B3343EA14534FEA043253
:10442000019C43EA0603A4F10C040294009CCDE92C
:1044300000B400F00BF903B0BDE8F08F0020014696
:10444000F9E70EB5C10F80EAE0700844CA07002101
:1044500040F233438DE80E000A460B4600F0F6F8B2
:1044600003B000BD00F0004230F000400AD0C10DA2
:1044700001F56071C0F3160042EA0151C20840071D
:104480001143704700200146704701F0004330B4EB
:1044900021F0004150EA010206D00A0DA2F5607237
:1044A000C1F31301002A02DC30BC00207047440F26
:1044B00044EAC104C100E01830BC00EBC25000F077
:1044C0007FB830B50B46014600202022012409E0C8
:1044D00021FA02F59D4205D303FA02F5491B04FABD
:1044E00002F52844151EA2F10102F1DC30BD2DE9D0
:1044F000F05F0546002092469B4688460646814668
:1045000040241BE0284641464746224600F053FA25
:1045100053465A46C01A914110D3114618462246B6
:1045200000F03AFA2D1A67EB01084F4622460120A7
:10453000002100F031FA17EB00094E41201EA4F1D2
:104540000104DFDC484631462A464346BDE8F09F79
:104550002DE9F04791460F4680460446002614F8A0
:10456000015B2DB100F04AFA0068405DC007F6D14A
:104570002B2D02D02D2D18D0641E4A4639462046D8
:1045800000F040FA27B13968A14201D1C7F8008094
:1045900071054FF002040BD54042002803DD00F006
:1045A000B3FA0460A007BDE8F08746F48066E4E74C
:1045B0000028F8DA00F0A8FA04606FF00040F2E793
:1045C0000029A8BF7047401C490008BF20F0010027
:1045D000704710B4B0FA80FC00FA0CF050EA010405
:1045E00004BF10BC704749B1CCF1200421FA04F497
:1045F00011FA0CF118BF012121430843A3EB0C0170
:10460000CB1D4FEA00614FEA102042BF002010BCD2
:10461000704700EBC35010440029A4BF10BC704782
:10462000401C490008BF20F0010010BC704710B5C5
:10463000141E73F1000408DA401C41F100019218C5
:104640005B411A4301D120F0010010BD2DE9F04D6E
:1046500092469B4611B1B1FA81F202E0B0FA80F2C3
:104660002032904600F098F904460F4640EA0A00CE
:1046700041EA0B0153465A46084313D0114653EA08
:10468000010019D0C8F14002504600F094F90546E7
:104690000E4650465946424600F07EF9084305D082
:1046A000012004E020463946BDE8F08D0020054396
:1046B00046EAE0762C4337430A986305E40AA0EB08
:1046C00008000022FD0A44EA47540A3002D50020BF
:1046D0000146E9E7010510196941DDE908450019BE
:1046E0006941BDE8F04DA2E72DE9FE4F804681EA21
:1046F0000300C00F0C46009021F0004123F000455C
:10470000B8EB0200A94105D24046214690461C461E
:104710000B46024623F00040104347D0270DC7F355
:104720000A00C3F30A510290401A019040286BDA44
:10473000C3F3130040F4801B0098924620B100237D
:10474000D2EB030A63EB0B0B01985946C0F1400210
:10475000504600F021F906460D4650465946019A4A
:1047600000F039F910EB08006141002487EA11528A
:1047700084EAE7731A4340D0009A62B3019A012A8F
:104780004FEA075215DC001B61EB02014FF00042BB
:1047900002EA0752CDE90042001C41F58011324681
:1047A0002B46FFF753FF03B0BDE8F08F404621468C
:1047B000F9E7001B61EB0201001C41F580130018B2
:1047C0005B412018A2F5001747EB030140EAD570C2
:1047D000B6196D4111E06D084FEA360645EAC0751D
:1047E0004FEA0752001B61EB0201001C41F58011EA
:1047F00049084FEA30000019514132462B4603B0B8
:10480000BDE8F04FFFF713BF0098012240000023DE
:10481000D0EB020263EBE073009821464FEAE074AC
:10482000B8EB000061EB0401E9E783F000435BE7CC
:1048300081F0004158E72DE9F04D81EA030404F0CE
:10484000004B21F0004514464FF0000A23F00041D0
:1048500050EA050220D054EA01021DD0C5F30A57E0
:104860000246C5F31303C1F31300C1F30A5640F423
:10487000801543F48013A7EB0608101BD64608F2F8
:10488000FD3873EB050002D308F1010801E092182E
:104890005B41B8F1000F03DA00200146BDE8F08D5E
:1048A00000204FF48011064684460EE0171B73EB80
:1048B000050705D3121B63EB050306434CEA010C05
:1048C00049084FEA300092185B4150EA0107EDD1E8
:1048D00052EA030012D082EA040083EA0501084389
:1048E00005D0101BAB4106D20122002306E00022B6
:1048F0004FF0004302E06FF0010253101AEB060084
:104900004CEB085110EB0A0041EB0B01BDE8F04DF8
:10491000FFF78DBEC1F30A52C1F3130140F2FF331A
:1049200041F480119A4202DA00200146704740F2B9
:1049300033439A42A2F2334202DC524200F03BB8C7
:1049400000F02AB830B5041E71F1000404DB4FF00A
:104950000044404264EB0101141E73F1000405DBC6
:104960001C464FF00043524263EB0403994208BFD8
:10497000904230BD064C074D06E0E06840F0010370
:1049800094E8070098471034AC42F6D3FBF7D4FB09
:10499000B4540008D4540008202A04DB203A00FA5A
:1049A00002F1002070479140C2F1200320FA03F386
:1049B000194390407047202A04DB203A21FA02F084
:1049C0000021704721FA02F3D040C2F12002914049
:1049D000084319467047202A06DBCB17203A41FAD4
:1049E00002F043EAE07306E041FA02F3D040C2F17C
:1049F0002002914008431946704700000048704764
:104A0000705400082DE9F05F8246007800271546B3
:104A10008B460AF10104B946302801D09DB113E05C
:104A200014F8010B0127782803D0582801D045B18C
:104A30000AE00DB1102D07D10027102514F8010B45
:104A400002E0082500E00A250026B0460EE005FB3E
:104A5000080005FB06F1012701EB10461FFA80F85C
:104A6000B6F5803F00D3B94614F8010B294600F093
:104A700018F80028EBDABBF1000F05D00FB1641E67
:104A800000E05446CBF80040B9F1000F06D000F02A
:104A90003BF802210160C81EBDE8F09F48EA0640CD
:104AA000FAE73A2800D2303820F02002412A01D318
:104AB000A2F13700884201D34FF0FF307047000069
:104AC0000FB4054B10B503A9044A029800F0F2F8A0
:104AD00010BC5DF814FB00003F3C0008940000206F
:104AE0000FB4084B10B504A902AA039800F0E2F82D
:104AF000044602A9002000F074FC204610BC5DF8BA
:104B000014FB0000E35300080048704798000020A1
:104B100002E008C8121F08C1002AFAD17047704786
:104B2000002001E001C1121F002AFBD170470000E4
:104B30002DE9FF5F82B00021DDE90430020DDDF8D0
:104B400040B0034318D044F61050A2F2FF32424363
:104B50001514119801281FD0A5EB0B00401C5FEA2B
:104B6000000A4FF000064E4FDFF83891B04650462D
:104B700015D5CAF1000413E0119801244AA30128B5
:104B800001D16FEA0B010298119AC0E90031C0E926
:104B9000024206B0BDE8F09FCBF10000DFE704461B
:104BA0000021404A491842EB0450CDE9001012E0C0
:104BB000E00707D032463B4640464946FFF7CFFB69
:104BC0008046894632463B4610461946FFF7C7FBEA
:104BD00006460F466410002CEAD1DDE90401DDE948
:104BE0000023BAF1000F06DAFFF7B9FB42464B4645
:104BF000FFF7B5FB05E0FFF71EFE42464B46FFF709
:104C00001AFE04460E460022284BFFF79BFE03D8EF
:104C10004FF0FF30014607E00022254B2046314689
:104C2000FFF762FDFFF776FE102409E0002C0ADB97
:104C30000A220023FFF75BFC039B30321A55641EE7
:104C400050EA0102F2D1641C039AC4F11103144426
:104C5000119A012A03D0012208430DD10AE008432A
:104C600004D000204FF0110B119072E7A3EB0B055D
:104C70006D1E0DE05B4504DD4FF0000205F10105FE
:104C800004E003DA4FF00002A5F10105002AECD0A0
:104C900002981199C0E90231C0E9004579E70000A6
:104CA000000014400000F03F300000000000F0431E
:104CB0000000E03F2DE9FF4F95B09B468946064630
:104CC00000250FE2252877D100242746F84A012144
:104CD000059400E0044316F8013F203B01FA03F07D
:104CE0001042F7D130782A2811D06FF02F03307896
:104CF000A0F13002092A16D8059A44F0020402EB0A
:104D0000820203EB42021044761C0590EFE759F84B
:104D1000042B0592002A03DA504244F40054059013
:104D200044F00204761C30782E2816D116F8010FB4
:104D300044F004042A280DD06FF02F023078A0F13F
:104D40003003092B09D807EB870302EB4303C7188D
:104D5000761CF3E759F8047B761C30786C280FD06A
:104D600006DC4C2817D068280DD06A2814D104E03E
:104D7000742810D07A280FD10DE044F400140AE012
:104D800044F4801401E044F440147278824202D169
:104D900004F58014761C761C307866280BD013DC62
:104DA000582877D009DC002875D04528F6D0462849
:104DB000F4D047281AD19DE118E0632835D0642843
:104DC00079D0652812D195E1702873D008DC672866
:104DD000F1D069286FD06E280DD06F2806D1B5E0CC
:104DE00073282CD0752875D0782874D05A46179916
:104DF00090476D1C75E1C4F30250022809D00328C6
:104E00000DD0D9F8001004280DD00D6009F1040967
:104E100067E1D9F80010EA17C1E90052F6E7D9F8BE
:104E200000100D80F2E70D70F0E719F8041B8DF803
:104E3000001000208DF80100EA46012003E059F837
:104E400004AB4FF0FF3061074FF0000102D40DE0DA
:104E500008F101018846B9420FDA8045F8DB1AF8FB
:104E600008100029F4D108E008F1010188468142C8
:104E7000FADB1AF808100029F6D105985B46A0EB7A
:104E8000080721463846179A00F094FA284400EBA8
:104E9000080507E04DE029E10DE01AF8010B5A463C
:104EA00017999047B8F10108F7D25B46214638467A
:104EB000179A13E142E00A220092C4F302524FF023
:104EC000000A022A08D059F804CB032A4FEAEC71F1
:104ED0000AD00DE029E02AE009F1070121F00702DC
:104EE000F2E802C1914609E00FFA8CFC4FEAEC713E
:104EF000042A03D14FFA8CFC4FEAEC71002907DA3F
:104F00000A460021DCF1000C61EB02012D2202E0D7
:104F1000220504D52B228DF80420012203E0E207AC
:104F200001D02022F7E7904659E00A2102E0102242
:104F30000DE010214FF0000A00910BE010224FF01D
:104F4000000A44F004040827009203E008224FF00E
:104F5000000A0092C4F30252022A05D059F804CB89
:104F60000021032A08D009E009F1070121F0070216
:104F7000F2E802C1914605E01FFA8CFC042A01D137
:104F80000CF0FF0C4FF00008220728D5702806D03F
:104F9000009B83F0100353EA0A0305D00EE0402281
:104FA0008DF80420012208E05CEA010206D03022DC
:104FB0008DF804208DF8050002229046009B83F0B6
:104FC000080353EA0A030AD15CEA010201D162072D
:104FD00005D530228DF804204FF001087F1E582897
:104FE00004D034A003900EA802900DE036A0F9E79B
:104FF00053466046009AFFF77AFA84460398825C2B
:105000000298401E029002705CEA0100F0D1029802
:1050100006A9081A00F1200A600702D524F480349A
:1050200000E00127574502DDA7EB0A0000E0002061
:1050300000EB0A01009005984144401A0590E003F6
:1050400006D45B462146179A059800F0B3F905444B
:10505000002706E001A85A46C05D179990476D1CCD
:105060007F1C4745F6DBE0030CD55B462146179ACB
:10507000059800F09FF9054404E030205A4617993E
:1050800090476D1C0099481E00900029F5DC08E04F
:10509000029802995A460078491C02911799904744
:1050A0006D1CBAF10001AAF1010AF1DC65E1000012
:1050B00009280100303132333435363738396162EE
:1050C00063646566000000003031323334353637B2
:1050D00038394142434445460000000000F058F989
:1050E0000544761C307800287FF4ECAD19B02846D2
:1050F000BDE8F08F620700D4062709F1070222F00D
:10510000070CFCE80223E14603F000485FEA080CC4
:1051100002D00FF2702C0DE05FEA045C02D50FF2B2
:10512000682C07E05FEAC47C02D00FF2602C01E03B
:10513000AFF2700C4FF0FF3823F00043CDF850C0B1
:1051400065280CD006DC452809D046281DD0472804
:105150003DD13DE0662818D067287ED138E0002197
:10516000112F01DB112000E0781CCDE9000106A918
:105170000EA8FFF7DDFCDDE90F010E9A0391002177
:10518000009207F1010A04914DE04FF000400097B2
:10519000CDE9011006A90EA8FFF7CAFCDDE90F0250
:1051A00003920E9B11990022DDF80CA0009304924B
:1051B00011B9791C00EB010AB7EB0A0004D4C0F165
:1051C000FF3007F1010A0490AAEB0700019044E0C8
:1051D000012F00DA01270021112F01DD112000E04D
:1051E0003846CDE9000106A90EA8FFF7A1FCDDE9CC
:1051F0000F010E9A0391002104910092BA462107F3
:105200000CD40399514500DA8A46BAF1010F05DD45
:10521000009AAAF10101515C302908D0B84202DAA3
:1052200010F1040F06DA0121CDE9011015E0AAF111
:105230000101E9E7002805DC049901440491AAEB87
:10524000000102E0411C514500DD8A460499401AE4
:10525000401C01904FF000400290200704D40198B8
:10526000504501DBCDF8048000208DF84F000298F6
:105270000DF14F07B0F1004F25D02B200E90029872
:105280004FF0020800280CDA404202902D200E90C8
:1052900007E00A210298FFF714F93031029007F86D
:1052A000011DB8F10001A8F10108F2DC0298002804
:1052B000EFD1791E0E980870307800F0200040F091
:1052C000450007F8020D12A8C01B00F1070814984A
:1052D000007800B1012000EB0A01019801EBE071B8
:1052E00005984144401A401E0590E00306D45B46F1
:1052F0002146179A059800F05DF805441498007847
:1053000018B15A46179990476D1CE00324D55B46A7
:105310002146179A059800F04DF805441CE00498C2
:10532000002807DBDDE90301884203DD0098405CCB
:10533000179901E0179930205A469047049805F1D3
:105340000105401C04900198401E019004D12E20BC
:105350005A46179990476D1CBAF10001AAF1010A4B
:10536000DDDC05E017F8010B5A46179990476D1CD4
:10537000B8F10001A8F10108F4DC5B462146179A58
:105380000598ABE62D0000002B0000002000000077
:105390002DE9F041044600251E461746880404D432
:1053A00005E039462020B0476D1C641EF9D528461B
:1053B000BDE8F0812DE9F041044600251E469046E7
:1053C000C80301D5302700E02027880404D505E074
:1053D00041463846B0476D1C641EF9D52846BDE8E5
:1053E000F0810A68531C0B60107070470040404009
:1053F00040404040404041414141414040404040A8
:105400004040404040404040404040404005020253
:105410000202020202020202020202020220202012
:10542000202020202020200202020202020290906E
:10543000909090901010101010101010101010106C
:1054400010101010101010100202020202028888C0
:1054500088888888080808080808080808080808CC
:1054600008080808080808080202020240000000B4
:10547000ED53000853537E4B4320466F63757365AD
:10548000727E4B432E415354524F7E7777772E6B6B
:105490006374772E636E7E61726B406B6374772EDC
:1054A000636E7E303537362D383533383935333302
:1054B00000000000D4540008000000209C00000000
:1054C000104B0008705500089C000020B407000035
:1054D000204B000800A24A04000000000000000069
:1054E000010203040607080900000000010203048A
:1054F00001020304060708090204060874540008A0
:105500000001000100000808090909030300000068
:10551000000000000000000000000000000000008B
:10552000000000000000000000000000339388C36A
:1055300000000000B40000000000000000000000B7
:105540000000F401000000000000000000800008DE
:1055500000FC0008008000080000000001000000BE
:10556000000000000000000000000000000000003B
:0400000508000131BD
:00000001FF
