:020000040800F2
:100000002807002045010008F92D0008FB2D0008F5
:10001000FF2D0008032E0008072E00080000000036
:100020000000000000000000000000000B2E00088F
:100030000D2E0008000000000F2E0008112E0008F1
:100040005F0100085F0100085F0100085F01000810
:100050005F0100085F0100081D2F00085F01000814
:100060005F0100085F0100085F0100085F010008F0
:100070005F0100085F0100085F0100085F010008E0
:100080005F0100085F0100085F0100085F010008D0
:100090005F0100085F0100085F0100085F010008C0
:1000A0005F010008192E00085F0100085F010008C9
:1000B0005F0100085F0100085F0100085F010008A0
:1000C0005F0100085F0100085F0100085F01000890
:1000D0005F010008392E0008AB2E00085F01000800
:1000E0005F0100085F0100085F0100085F01000870
:1000F0005F0100085F0100085F0100085F01000860
:100100005F0100085F0100085F0100085F0100084F
:100110005F0100085F0100085F0100085F0100083F
:100120005F0100085F0100085F0100085F0100082F
:10013000DFF80CD003F06EF900480047A32C00084C
:10014000280700200648804706480047FEE7FEE7EC
:10015000FEE7FEE7FEE7FEE7FEE7FEE7FEE7FEE777
:1001600047020008310100080CB500200190009002
:100170006C48006840F480306A49086000BF6948F4
:10018000006800F4003000900198401C0190009835
:1001900018B90198B0F5A06FF1D16248006800F479
:1001A000003010B10120009001E000200090009884
:1001B000012843D15C48006840F010005A490860AB
:1001C0000846006820F0030008600846006840F018
:1001D0000200086053484068524948600846406839
:1001E00048600846406840F48060486008464068BF
:1001F00020F47C1048600846406840F4E8104860ED
:100200000846006840F08070086000BF45480068FC
:1002100000F000700028F9D04248406820F0030048
:10022000404948600846406840F00200486000BF0E
:100230003C48406800F00C000828F9D10CBD10B50E
:10024000FFF792FF10BD10B53648006840F001007E
:1002500034490860084640683449084031494860DC
:1002600008460068324908402E4908600846006880
:1002700020F4802008600846406820F4FE004860B2
:100280004FF41F008860FFF7DAFF4FF00060294944
:10029000086010BD10B5002100200022214B5B68D2
:1002A00003F00C0121B1042906D0082928D107E068
:1002B000214B224C236027E01F4B204C236023E07E
:1002C000184B5B6803F47010164B5B6803F48032C4
:1002D000022303EB904022B9194B4343174C236090
:1002E0000DE0104B5B6803F4003323B1144B434320
:1002F000124C236003E0104B4343104C236003E097
:100300000D4B0E4C236000BF00BF064B5B68C3F370
:1003100003130C4CE15C094B1B68CB40074C23607A
:1003200010BD000000100240002002400000FFF855
:10033000FFFFF6FE08ED00E000127A00000000204A
:1003400000093D000400002031490143314A116099
:10035000704770B5002100230F22C47804B32D4CE0
:10036000246804F4E064C4F5E064210AC1F10403E4
:10037000CA40447804FA03F1847814402143090107
:10038000254C0678A155047804F01F050124AC40E3
:1003900005786D11AD0005F1E025C5F8004109E0D3
:1003A000047804F01F050124AC401C4D067876113A
:1003B00045F8264070BD1A4A0A400243154B1B1FE0
:1003C0001A60704739B1134A121D12680243114B6B
:1003D0001B1D1A6006E00F4A121D126882430D4B66
:1003E0001B1D1A607047042808D14FF0E0210969ED
:1003F00041F004014FF0E022116107E04FF0E021ED
:10040000096921F004014FF0E022116170470000FA
:100410000000FA050CED00E000E400E080E100E0FF
:1004200080FFFF1F002044490860091D0860091D66
:100430000860091D086041483F4914310860704751
:1004400000213D498279002A3AD00A4612680368A1
:100450009A430B461A600A1D126803689A430B1DE3
:100460001A60027911440A6803681A430A60324A22
:100470000832126803689A432F4B08331A601A1D1A
:10048000126803689A432C4B0C331A604279102A85
:100490000ED11A1F126803681A43274B08331A60DB
:1004A0001A1D126803681A43234B0C331A600DE0BF
:1004B0002149427911440A6803681A430A6005E039
:1004C000027911440A6803689A430A607047002160
:1004D000016001710C214171002181717047164941
:1004E000103109680143144A103211607047014607
:1004F0000020114A143212680A400AB1012000E0BB
:10050000002070470C4914310860704701460020F4
:100510000022094B1B6803EA0102074B14331B68D6
:100520000B4013B10AB1012000E0002070470249DE
:10053000143108607047000000040140FFFF0F0005
:1005400001460020FE4A106800F0380008431060A1
:100550007047FB49096821F00801F94A116011460A
:100560000968014311607047F549096821F01001DD
:10057000F34A116011460968014311607047F14860
:10058000EF494860F04848607047EE48EC494860E1
:10059000ED4848607047EA48006940F08000E8494B
:1005A00008617047E648006940F08000E44908614E
:1005B00070470420E249C96801F0010109B1012036
:1005C0000EE0DF49C96801F0040109B1022007E02B
:1005D000DB49C96801F0100109B1032000E00420E3
:1005E000704700B502460423FFF7E3FF034603E02C
:1005F000FFF7DFFF0346521E012B01D1002AF7D17E
:1006000002B90523184600BD30B5044604254FF451
:100610003020FFF7E6FF0546042D17D1C8480069D2
:1006200040F00200C649086108464461006940F094
:10063000400008614FF43020FFF7D3FF0546C04863
:10064000006941F6FD710840BD490861284630BD8A
:1006500010B504244FF43020FFF7C3FF0446042CE8
:1006600016D1B748006940F00400B5490861084652
:10067000006940F0400008614FF43020FFF7B1FFFF
:100680000446AF48006941F6FB710840AC49086177
:10069000204610BD00B502460423FFF78AFF03463B
:1006A00003E0FFF786FF0346521E012B01D1002A0B
:1006B000F7D102B90523184600BD10B504244FF444
:1006C0003020FFF7E7FF0446042C16D19C48006950
:1006D00040F004009A4908610846006940F0400073
:1006E00008614FF43020FFF7D5FF044694480069B5
:1006F00041F6FB71084092490861204610BD002078
:100700008F49C96901F0020109B1012000E0002010
:10071000704730B5A5250424FFF7F1FF00B100258F
:100720004FF43020FFF75DFF0446042C3AD1854892
:1007300083498860844888600846006940F020004A
:1007400008610846006940F0400008614FF430201D
:10075000FFF747FF0446042C1BD17948006941F696
:10076000DF710840764908610846006940F01000D2
:10077000086176480580E002FFF733FF0446052C48
:1007800010D06F48006941F6EF7108406C4908616C
:1007900008E0052C06D06A48006941F6EF71084070
:1007A00067490861204630BD78B506460C460425E9
:1007B00000200090E802FFF714FF0546042D24D125
:1007C0005F48006940F001005D4908613480E8023B
:1007D000FFF707FF0546042D10D1B01C0090200C38
:1007E00000990880E802FFF7FCFE054654480069BE
:1007F00041F6FE7108405249086106E05048006920
:1008000041F6FE7108404E490861284678BD70B532
:1008100004460D460426F002FFF7E3FE0646042ECA
:1008200011D14748006940F0010045490861258021
:10083000F002FFF7D6FE06464148006941F6FE7118
:1008400008403F490861304670BD70B505460E4608
:100850000424E002FFF7C5FE0446042C17D13948F2
:1008600037498860384888600846006940F01000C1
:1008700008612E80E002FFF7B4FE0446052C06D086
:100880002F48006941F6EF7108402D490861204664
:1008900070BD2DE9F04304464FF6FF763746B0466B
:1008A000B1460425E443E6B2C4F30727C4F307487E
:1008B0004FEA1469E802FFF794FE0546042D49D17A
:1008C00020481F498860204888600846006940F039
:1008D00010000861FF2E06D01C4808300680E80290
:1008E000FFF77FFE0546042D08D1FF2F06D01748DD
:1008F0000A300780E802FFF774FE0546042D0AD18E
:10090000B8F1FF0F07D011480C30A0F80080E802C2
:10091000FFF767FE0546042D0AD1B9F1FF0F07D096
:100920000A480E30A0F80090E802FFF75AFE05468C
:10093000052D0FD00248006941F6EF71084007E02D
:100940000020024023016745AB89EFCD00F8FF1F6F
:10095000664908612846BDE8F08330B505460424A1
:100960004FF43020FFF73DFE0446042C41D160488F
:100970005E4988605F4888600846006940F0200052
:1009800008610846006940F0400008614FF43020DB
:10099000FFF727FE0446042C22D15448006941F693
:1009A000DF710840514908610846006940F01000B5
:1009B00008611DB100205049088002E0A5204E4981
:1009C00008804FF43020FFF70CFE0446052C10D0B1
:1009D0004648006941F6EF7108404449086108E063
:1009E000052C06D04148006941F6DF7108403F49B7
:1009F0000861204630BDF0B505460E461746042472
:100A00003B483A4988603B488860E002FFF7E9FDCF
:100A10000446042C19D13548006940F010003349D0
:100A2000086147F0F800304328433349891C0880A7
:100A3000E002FFF7D6FD0446052C06D02B480069DE
:100A400041F6EF710840294908612046F0BD27486A
:100A5000C069800870472548006A70470020234914
:100A6000096801F0200109B1012000E00020704771
:100A700029B11E4A126902431C4B1A6104E01B4A49
:100A800012698243194B1A617047014600200129FF
:100A900008D1164AD26902F001020AB1012008E029
:100AA000002006E0114AD2680A400AB1012000E0A5
:100AB000002070470D49C860704704200B49C96881
:100AC00001F0010109B101200EE00849C96801F0F7
:100AD000040109B1022007E00449C96801F01001CE
:100AE00009B1032000E0042070470000002002400C
:100AF00023016745AB89EFCD00F8FF1F10B5044611
:100B0000CC48844208D10121042000F02DFB0021B3
:100B1000042000F029FB46E0C748844208D10121A7
:100B2000082000F021FB0021082000F01DFB3AE026
:100B3000C248844208D10121102000F015FB002199
:100B4000102000F011FB2EE0BD48844208D10121A5
:100B5000202000F009FB0021202000F005FB22E00E
:100B6000B848844208D10121402000F0FDFA00215C
:100B7000402000F0F9FA16E0B348844208D1012180
:100B8000802000F0F1FA0021802000F0EDFA0AE068
:100B9000AE48844207D10121801500F0E5FA00211A
:100BA000A01500F0E1FA10BD10B50121084600F0D3
:100BB000DBFA0021012000F0D7FA10BD2DE9F04149
:100BC000024600250026002000230024002791F87B
:100BD00003C00CF00F0591F803C00CF0100CBCF131
:100BE000000F03D091F802C04CEA050591F800C04F
:100BF000BCF1000F31D0146800202BE04FF0010C45
:100C00000CFA00F3B1F800C00CEA03069E4220D1B2
:100C100083004FF00F0C0CFA03F7BC4305FA03FCFA
:100C20004CEA040491F803C0BCF1280F06D14FF040
:100C3000010C0CFA00FCC2F814C00AE091F803C0E1
:100C4000BCF1480F05D14FF0010C0CFA00FCC2F8C2
:100C500010C0401C0828D1D31460B1F800C0BCF10A
:100C6000FF0F34DD546800202EE000F1080C4FF037
:100C7000010808FA0CF3B1F800C00CEA03069E4222
:100C800021D183004FF00F0C0CFA03F7BC4305FA97
:100C900003FC4CEA040491F803C0BCF1280F05D111
:100CA00000F1080C08FA0CF8C2F8148091F803C09F
:100CB000BCF1480F07D100F1080C4FF0010808FA09
:100CC0000CF8C2F81080401C0828CED35460BDE850
:100CD000F0814FF6FF710180022181700421C17003
:100CE00070470246002093680B400BB1012000E0E2
:100CF000002070470146886880B270470246002095
:100D0000D3680B400BB1012000E000207047014682
:100D1000C86880B2704701617047416170470AB18D
:100D2000016100E041617047C16070474FF480325B
:100D30000A438261816182618269826970470246E9
:100D40000020434B18684FF68073184040EA0210A9
:100D500008433F4B186070473E49C8617047F0B583
:100D60000A46002300240021002500F00046B6F1C9
:100D7000004F02D1364EF16901E0354E7168C0F383
:100D8000034583B200F44016B6F5401F08D121F0A8
:100D900070612F4E766826F070662D4F7E6012E0EF
:100DA00000F48016B6F5801F06D1032606FA05F476
:100DB000A14341F0706106E0460D360103FA06F6E4
:100DC000B14341F0706122B1460D360103FA06F6D7
:100DD000314300F00046B6F1004F02D11C4EF161E4
:100DE00001E01B4E7160F0BD30B500228B071C0F77
:100DF0000F2303FA04F2164B08338C1053F82430F7
:100E00009343134C08348D1044F8253023468C103E
:100E100053F824308C07240F00FA04F423430C4CBD
:100E200008348D1044F8253030BD0A49DC310860A3
:100E30007047000000080140000C01400010014014
:100E40000014014000180140001C01400020014036
:100E50000000014000002042DF48006840F001002F
:100E6000DD49086008464068DC490840DA494860C6
:100E700008460068DA490840D74908600846006813
:100E800020F4802008600846406820F4FE00486096
:100E90004FF41F0088607047CF49096821F4803102
:100EA000CD4A11601146096821F480211160B0F526
:100EB000803F03D0B0F5802F0ED106E0C649096807
:100EC00041F48031C44A116007E0C349096841F424
:100ED000A021C14A116000E000BF00BF704710B5FB
:100EE00001460022002300204A11012A02D1BA4CF7
:100EF000236806E0022A02D1B74C236A01E0B64C0F
:100F0000636A01F01F02012494401C400CB10120CF
:100F100000E0002010BD38B500200090002400251E
:100F200000BF3120FFF7DBFF05460098401C009012
:100F30000098B0F5A06F01D0002DF2D03120FFF75E
:100F4000CEFF08B1012400E00024204638BD014650
:100F50000020A14A106820F0F80040EAC1001060AB
:100F60007047A04908607047024600209A4B5868B5
:100F700020F47C1042EA01031843974B58607047F5
:100F800098490866704701460020934A506820F04F
:100F900003000843506070478F48406800F00C0021
:100FA0007047014600208C4A506820F0F00008434A
:100FB0005060704701460020874A506820F4E06086
:100FC00008435060704701460020834A506820F46F
:100FD000605040EAC1005060704729B17E4A527AA1
:100FE00002437D4B5A7204E07B4A527A82437A4B29
:100FF0005A7270477B49D83108607047014600201B
:10100000754A506820F44040084350607047002102
:10101000714A20321170704A82F82010012802D0E3
:1010200004280AD104E001216B4A2032117005E046
:101030000521694A2032117000E000BF00BF7047EF
:101040006949086070476449096A0143624A11624C
:101050007047654944390860704730B50021002267
:10106000002400235C4D6D6805F00C0121B10429BA
:1010700005D0082923D105E05C4D056022E05B4DD9
:1010800005601FE0544D6D6805F47012524D6D6897
:1010900005F48034022505EB92421CB9544D5543AA
:1010A00005600BE04C4D6D6805F400351DB1504DE9
:1010B0005543056002E04D4D5543056002E04B4D40
:1010C000056000BF00BF444D6D6805F0F0010909DF
:1010D000484D6B5C0568DD4045603F4D6D6805F42B
:1010E000E061090A434D6B5C4568DD4085603A4D1F
:1010F0006D6805F46051C90A3E4D6B5C4568DD4082
:10110000C560354D6D6805F44041890B3A4D6B5C07
:10111000C568B5FBF3F5056130BD29B12E4A5269AA
:1011200002432D4B5A6104E02B4A526982432A4BF9
:101130005A61704729B1284A92690243264B9A6145
:1011400004E0254A92698243234B9A61704729B192
:10115000214AD2690243204BDA6104E01E4AD26977
:1011600082431D4BDA61704729B11B4AD2680243A2
:10117000194BDA6004E0184AD2688243164BDA60F1
:10118000704729B1144A12690243134B1A6104E0F3
:10119000114A12698243104B1A6170471249403953
:1011A000086070470F49C86470470B49C8717047A1
:1011B0000948406A40F0807007494862704701461C
:1011C0000020054A92680A400AB1012000E0002090
:1011D0007047014988727047001002400000FFF814
:1011E000FFFFF6FE000042428004424200127A00F5
:1011F00000093D00140000202400002010B5044622
:10120000FE48844208D10121C014FFF7ADFF002140
:10121000E014FFF7A9FFC4E0B4F1804F08D1012129
:101220000846FFF7AEFF00210120FFF7AAFFB8E054
:10123000F348844208D101210220FFF7A2FF0021D8
:101240000220FFF79EFFACE0EE48844208D1012166
:101250000420FFF796FF00210420FFF792FFA0E093
:10126000E948844208D101210820FFF78AFF0021C4
:101270000820FFF786FF94E0E448844208D101216A
:101280001020FFF77EFF00211020FFF77AFF88E093
:10129000DF48844208D101212020FFF772FF00219E
:1012A0002020FFF76EFF7CE0DA48844208D101215C
:1012B0004014FFF759FF00216014FFF755FF70E05D
:1012C000D548844209D10121C804FFF74DFF002110
:1012D0004FF40020FFF748FF63E0D048844209D173
:1012E00001210805FFF740FF00214FF48010FFF7B0
:1012F0003BFF56E0CA48844209D101214805FFF767
:1013000033FF00214FF40010FFF72EFF49E0C548DE
:10131000844208D101214020FFF733FF0021402003
:10132000FFF72FFF3DE0C048844208D10121802013
:10133000FFF727FF00218020FFF723FF31E0BB48A4
:10134000844208D101218015FFF71BFF0021A01561
:10135000FFF717FF25E0B648844209D101210804B0
:10136000FFF702FF00214FF48030FFF7FDFE18E089
:10137000B048844209D101214804FFF7F5FE00215D
:101380004FF40030FFF7F0FE0BE0AB48844208D189
:1013900001218804FFF7E8FE00214FF48020FFF7C9
:1013A000E3FE10BD00220288944B98420ED0994B68
:1013B00098420BD0B0F1804F08D0914B984205D0A5
:1013C000904B984202D0904B984204D14FF68F73C5
:1013D0001A404B881A438D4B984207D08C4B984249
:1013E00004D04FF6FF431A40CB881A4302808B8803
:1013F00083850B880385814B98420BD0854B98429F
:1014000008D08B4B984205D08A4B984202D08A4B29
:10141000984201D10B7A038601238382704770B50D
:10142000002400220023058C4FF6FE76354005840B
:10143000028C8388048B4FF68F752C40B51E2C4090
:101440000D882C43751E2A400D892A434D882A4356
:101450006A4DA8420BD06F4DA84208D0744DA842E7
:1014600005D0744DA84202D0734DA84213D14FF657
:10147000F7752A404D892A434FF6FB752A408D881F
:101480002A434FF6FF652B404FF6FF552B408D89C1
:101490002B43CD892B4383800483CD8885860284AA
:1014A00070BD70B5002400220023058C4FF6EF7646
:1014B00035400584028C8388048B48F6FF752C40E8
:1014C0004FF6FF452C400D884FF6FF7606EA0525BE
:1014D0002C434FF6DF752A400D8906EA05152A438D
:1014E0004D8806EA05152A43444DA84202D0494DCD
:1014F000A8421DD14FF67F752A404D894FF6FF76E1
:1015000006EA05152A434FF6BF752A408D8806EA7C
:1015100005152A434FF6FF352B404FF2FF752B4040
:101520008D8906EA85052B43CD8906EA85052B437F
:1015300083800483CD880587028470BD70B5002444
:1015400000220023058C4FF6FF6635400584028C8F
:101550008388848B4FF68F752C404FF6FC752C409A
:101560000D882C434FF6FF552A400D894FF6FF7624
:1015700006EA05252A434D8806EA05252A431F4D1C
:10158000A84202D0234DA8421DD14FF2FF752A4038
:101590004D894FF6FF7606EA05252A434FF6FF35BB
:1015A0002A408D8806EA05252A434EF6FF752B4012
:1015B0004DF6FF752B408D8906EA05152B43CD8925
:1015C00006EA05152B4383808483CD8885870284B2
:1015D00070BD70B5002200230024058C4EF6FF7606
:1015E00035400584038C8488828B48F6FF752A4039
:1015F0004FF6FF452A400D8820E00000002C0140F6
:101600000004004000080040000C004000100040B2
:101610000014004000340140004C014000500140E3
:101620000054014000180040001C00400020004011
:101630000040014000440140004801404FF6FF7661
:1016400006EA05252A434DF6FF752B400D8906EA6B
:1016500005352B434D8806EA05352B43FA4DA84244
:1016600002D0FA4DA84208D14BF6FF752C408D8967
:101670004FF6FF7606EA85152C4384808283CD8859
:10168000A0F84050038470BD828B4FF2FF331A40A4
:101690008283828B4FF6FF7303EA01231A4382830E
:1016A0007047F0B50C461546002200210026078C35
:1016B0004EF6FF7C07EA0C070784828B018C4FF6FD
:1016C000FF7707EA043640F6FF473A404FF6FF77C8
:1016D00007EA05273A434FF6FF7707EA03373A430D
:1016E000D94FB8420ED0D94FB8420BD0B0F1804F8D
:1016F00008D0D74FB84205D0D64FB84202D0D64F07
:10170000B84206D14DF6FF77394046F48057394349
:1017100005E047F6FF57394044F480573943828348
:101720000184F0BD828B4FF6F3731A408283828B63
:101730000A4382837047F0B50C461546002200210B
:101740000026078C4FF6FF6C07EA0C070784828B94
:10175000018C4FF6FF7707EA04264FF60C773A40E4
:101760004FF6FF7707EA03172F433A43B64FB842C5
:101770000ED0B64FB8420BD0B0F1804F08D0B44F66
:10178000B84205D0B34FB84202D0B34FB84206D1E9
:101790004FF6FF57394046F48077394305E04FF262
:1017A000FF57394044F48077394382830184F0BD88
:1017B000028B4FF2FF331A400283028B4FF6FF7306
:1017C00003EA01231A4302837047F0B50C4615461D
:1017D000002200210026078C4FF6EF7C07EA0C0759
:1017E0000784028B018C4FF6FF7707EA041640F658
:1017F000FF473A404FF6FF7707EA03373A434FF681
:10180000FF7707EA05273A438F4FB8420ED08F4F34
:10181000B8420BD0B0F1804F08D08D4FB84205D000
:101820008C4FB84202D08C4FB84206D14FF6DF77CA
:10183000394046F01007394305E04FF65F773940ED
:1018400044F01007394302830184F0BD028B4FF648
:10185000F3731A400283028B0A4302837047F0B588
:101860000C46154600220021068C4FF6FE773E40BE
:101870000684028B018C4FF60C7632407E1C06EA01
:1018800003162E433243704EB0420ED06F4EB0421C
:101890000BD0B0F1804F08D06D4EB04205D06D4EE8
:1018A000B04202D06C4EB04206D14FF6FD763140C8
:1018B00044F00106314305E04FF6F576314044F03F
:1018C0000106314302830184F0BD70B505460C4624
:1018D0005D4885420ED05D4885420BD0B5F1804F02
:1018E00008D05B48854205D05A48854202D05A4804
:1018F000854200D100E000BF208850B92389A2882A
:1019000061882846FFF7ABFFE1882846FFF79EFF76
:1019100025E0208804280AD12389A28861882846E6
:10192000FFF753FFE1882846FFF742FF17E02088C2
:1019300008280AD12389A28861882846FFF7FBFE80
:10194000E1882846FFF7EEFE09E02389A288618836
:101950002846FFF7A6FEE1882846FFF795FE70BDF2
:101960002DE9F04105460C4600260127608808B99C
:10197000022600E00026A088012801D1022700E00D
:1019800001272088A0B92389A28861882846FFF70B
:1019900066FFE1882846FFF759FF23893A4631461A
:1019A0002846FFF712FFE1882846FFF701FF13E002
:1019B0002389A28861882846FFF707FFE188284627
:1019C000FFF7F6FE23893A4631462846FFF747FFE0
:1019D000E1882846FFF73AFFBDE8F0810A884B8886
:1019E0001A438B881A43CB881A430B891A434B89B5
:1019F0001A438B891A43A0F8442070474FF6FF71B1
:101A0000818000210180C1804180017270470021E6
:101A1000018041808180C180018141818181C181BA
:101A20007047002101804180012181800021C18017
:101A3000018170470021018041808180C180018146
:101A40004181818170470000002C01400034014039
:101A50000004004000080040000C004021B1028852
:101A600042F00102028004E002884FF6FE731A4041
:101A70000280704731B1B0F8442042F40042A0F82F
:101A8000442005E0B0F84420C2F30E02A0F8442040
:101A900070471AB183890B43838102E083898B43AA
:101AA000838170478182704741EA0203A0F8483081
:101AB00070471AB183890B43838102E083898B438A
:101AC0008381704701894FF6F87211400181704798
:101AD0000A46002101894FF68F7319401143018195
:101AE000704730B504460D4629462046FFF7F0FF03
:101AF000208940F00700208130BD2DE9F0410446E7
:101B00000D4616461F46602D06D13B460122314642
:101B10002046FFF75AFE05E03B46012231462046AB
:101B2000FFF79DFE29462046FFF7D2FF208940F0AF
:101B300007002081BDE8F08130B50C460021018905
:101B4000C9B24FF6FF7505EA03251543254329431E
:101B5000018130BD2DE9F04105460E4617469846F5
:101B6000002443463A4631462846FFF7E5FF2C89D4
:101B70004FF6F870044044F007044FF68F700440AD
:101B800044F070042C81BDE8F081F0B504460D46A8
:101B900016461F463B46324629462046FFF7CCFFF5
:101BA000208940F480402081F0BD01858282704709
:101BB0000A46002101884FF68F73194011430180B6
:101BC0007047F0B50C4615461E4600210022002342
:101BD0000189028B038C4FF6F877394021434FF689
:101BE000FC473A4040F201173A434FF6DD773B405D
:101BF0004FF6FF7707EA06172F433B430181028325
:101C00000384F0BD0A460021018B4FF68F73194003
:101C10001143018370470A460021018B48F6FF7388
:101C200019404FF6FF7303EA0223194301837047FB
:101C30000A460021818B4FF68F731940114381832F
:101C400070470A460021818B48F6FF7319404FF612
:101C5000FF7303EA022319438183704721B102888D
:101C600042F08002028004E002884FF67F731A403F
:101C70000280704721B1828842F00402828004E031
:101C800082884FF6FB731A408280704721B18288A8
:101C900042F00802828004E082884FF6F7731A400F
:101CA0008280704721B1828842F00102828004E084
:101CB00082884FF6FE731A40828070470A460021E0
:101CC000018B4FF6F77319401143018370470A46A1
:101CD0000021018B4FF2FF7319404FF6FF7303EAA7
:101CE00002231943018370470A460021818B4FF676
:101CF000F77319401143818370470A460021818B95
:101D00004FF2FF7319404FF6FF7303EA02231943A2
:101D1000818370470A460021018B4FF6FB731940FF
:101D20001143018370470A460021018B4FF6FF33B0
:101D300019404FF6FF7303EA0223194301837047EA
:101D40000A460021818B4FF6FB73194011438183B2
:101D500070470A460021818B4FF6FF3319404FF63A
:101D6000FF7303EA02231943818370470A46002167
:101D7000018B4FF67F7319401143018370470A4668
:101D80000021018BC1F30E014FF6FF7303EA02231A
:101D90001943018370470A460021818B4FF67F73F8
:101DA00019401143818370470A460021818BC1F39A
:101DB0000E014FF6FF7303EA022319438183704734
:101DC0000A460021018C4FF6FD731940114301842E
:101DD00070470A460021018C4FF6F77319401143F2
:101DE000018470470A460021018C4FF6DF731940C9
:101DF0004FF6FF7303EA02131943018470470A4642
:101E00000021018C4FF67F7319404FF6FF7303EAF0
:101E100002131943018470470A460021018C4FF6D2
:101E2000FF5319404FF6FF7303EA0223194301845D
:101E300070470A460021018C4FF2FF7319404FF69C
:101E4000FF7303EA02231943018470470A46002105
:101E5000018C4DF6FF7319404FF6FF7303EA02330E
:101E600019430184704730B5002301248C40A3B28C
:101E7000048C9C430484048C02FA01F5ADB22C431B
:101E8000048430BD30B5002304248C40A3B2048CFC
:101E90009C430484048C02FA01F5ADB22C43048403
:101EA00030BD70B5034600200024184618300125C7
:101EB0008D40ACB21D8CA5431D8409B1082909D100
:101EC00000EB6100056825F07005056005681543A5
:101ED00005600EE00D1FC5F34E052844056825F486
:101EE000E045056005684FF6FF7606EA02263543B1
:101EF000056070BD21B1028842F00202028004E058
:101F000002884FF6FD731A400280704721B10288A3
:101F100042F00402028004E002884FF6FB731A408C
:101F20000280704721B1828842F08002828004E002
:101F300082884FF67F731A408280704702884FF67E
:101F4000F7731A40028002880A4302807047828831
:101F50004FF68F731A40828082880A4382807047CE
:101F600002894FF6F8731A40028102890A430281FE
:101F7000704702894FF67F731A40028102890A4333
:101F800002817047818470478185704781867047E0
:101F90000187704781877047A0F84010704702881A
:101FA0004FF6FF431A40028002880A4302807047BE
:101FB0000146888E70470146088F70470146888F1A
:101FC00070470146B1F8400070470146888C704761
:101FD0000146088D704702460020138A0B400BB162
:101FE000012000E000207047CA430282704730B5EC
:101FF0000246002000230024158A05EA0103958982
:1020000005EA010413B10CB1012000E0002030BD4D
:10201000CA4302827047000010B50446FB48844260
:1020200009D101218803FFF79FF800214FF4804078
:10203000FFF79AF832E0F648844209D101214804BA
:10204000FFF79FF800214FF40030FFF79AF825E0E2
:10205000F048844209D101218804FFF792F8002159
:102060004FF48020FFF78DF818E0EB48844209D147
:102070000121C804FFF785F800214FF40020FFF785
:1020800080F80BE0E548844208D101210805FFF7FC
:1020900078F800214FF48010FFF773F810BD2DE998
:1020A000F04786B005460E460024A24600BFA14672
:1020B0000027B08900B100BF2F462C8A4CF6FF7074
:1020C0000440F08804432C82AC894EF6F31004409F
:1020D000B08831890843718908430443AC81AC8AD4
:1020E0004FF6FF400440B0890443AC8201A8FEF7DC
:1020F000B4FFC648874202D1DDF810A001E0DDF848
:102100000CA0A88900F4004040B10AEBCA0000EB23
:102110000A1031684900B0FBF1F807E00AEBCA0089
:1021200000EB0A1031688900B0FBF1F86420B8FBBD
:10213000F0F004012009642101FB1089A88900F452
:10214000004040B1322000EBC900B0FBF1F000F0DC
:102150000700044308E0322000EB09106421B0FBC3
:10216000F1F000F00F0004432C8106B0BDE8F087C9
:102170004FF41651016000218180C18001810C2142
:10218000418100218181704710B502460020108AEC
:102190004FF2FF0318400B884C8823438C8823435D
:1021A000CC8823431843108210BD00210180418058
:1021B0008180C180704721B1828942F400528281BE
:1021C00004E082894DF6FF731A4082817047F0B5B2
:1021D0000346002400260025002040F66A17B94275
:1021E00000D100BF1846C1F3421401F01F060127B9
:1021F00007FA06F5012C01D10C3004E0022C01D1C4
:10220000103000E014301AB107682F43076002E075
:102210000768AF430760F0BD1AB1838A0B4383821E
:1022200002E0838A8B4383827047028A4FF6F07301
:102230001A400282028A0A430282704782894FF260
:10224000FF731A40828182890A438281704721B1DB
:10225000828942F00202828104E082894FF6FD7396
:102260001A4082817047028A4FF6DF731A40028259
:10227000028A0A430282704721B1028A42F48042F4
:10228000028204E0028A4BF6FF731A400282704712
:10229000C1F308028280704701468888C0F30800B5
:1022A0007047818941F0010181817047028BD2B270
:1022B0000283028B42EA012202837047028B02F4FE
:1022C0007F420283028B0A430283704721B1828AD4
:1022D00042F02002828204E0828A4FF6DF731A40C5
:1022E0008282704721B1828A42F01002828204E029
:1022F000828A4FF6EF731A408282704721B1828A38
:1023000042F00802828204E0828A4FF6F7731A4094
:102310008282704721B1828942F40042828103E0C7
:102320008289C2F30E028281704721B1828A42F40F
:102330000062828204E0828A4FF2FF731A40828236
:102340007047828A4FF6FB731A408282828A0A4360
:102350008282704721B1828A42F00202828204E0C6
:10236000828A4FF6FD731A4082827047024600202F
:10237000B1F5007F00D100BF13880B400BB10120E5
:1023800000E00020704701F40072B2F5007F00D138
:1023900000BFCA430280704770B502460024002384
:1023A0000025002040F66A16B14200D100BFC1F3FB
:1023B000421501F01F03012606FA03F3012D02D195
:1023C0009689334006E0022D02D1168A334001E09F
:1023D000968A33400C12012606FA04F4168834401B
:1023E00013B10CB1012000E0002070BD10B5002237
:1023F000002340F66A14A14200D100BF0A12012452
:102400009440A3B2DC43048010BD000000380140BA
:102410000044004000480040004C00400050004094
:10242000002100BF48E000BF00BF00BF00BF00BFE9
:1024300000BF00BF00BF00BF00BF00BF00BF00BFA4
:1024400000BF00BF00BF00BF00BF00BF00BF00BF94
:1024500000BF00BF00BF00BF00BF00BF00BF00BF84
:1024600000BF00BF00BF00BF00BF00BF00BF00BF74
:1024700000BF00BF00BF00BF00BF00BF00BF00BF64
:1024800000BF00BF00BF00BF00BF00BF00BF00BF54
:1024900000BF00BF00BF00BF00BF00BF00BF00BF44
:1024A00000BF00BF00BF00BF00BF00BF00BF00BF34
:1024B00000BF00BF00BF491C8142B4D3704710B5B4
:1024C00003464FF47A7003FB00F42046FFF7A8FFA1
:1024D00010BD10B502460023F8480088884207DA8C
:1024E000F64800884FF6FF742044401A83B203E098
:1024F000F2480088401A83B202EB82004000984202
:1025000001DC012010BD0020FCE7F8B505460E46B1
:10251000174604200090FEF732F83520FEF7CAFA7D
:102520002846FEF771F800909DF80000042813D1AA
:10253000002408E056F824102846FEF735F90090EC
:102540002D1D601CC4B2BC4203DA9DF800000428B3
:10255000F0D0FEF720F801E00020F8BD9DF8000063
:10256000042801D10120F8E70020F6E710B50B465A
:10257000002105E0046843F82140001D4C1CE1B235
:102580009142F7DB10BD70B5002500240026002025
:10259000CB49087000BF32E0CA4800684FF4806140
:1025A00001FB0500C84908600522C849C648006803
:1025B000FFF7DCFFC5480088C5490988884214DD5B
:1025C0000020C24908804860002405E00121BF487E
:1025D00008300155601CC4B20C2CF7DB0522BB4946
:1025E000B9480068FFF791FF07E0B8484068B0427B
:1025F00003D9B6484668B2480570681CC5B2202D9C
:10260000CADBB0480068AE4909784FF4806202FB2B
:102610000100AD4908600522AC49AB480068FFF7EE
:10262000A5FFAA480088AB490880A8484068AA4985
:102630000860002406E0A5480830005DA749085559
:10264000601CC4B20C2CF6DB70BD70B500250024F4
:10265000A0480088401C9F4908809F480068401C93
:102660009D4908609B48008899490988884212DD85
:102670000120984908809448006800F580609249DC
:1026800008600846006896490968884203D38D4867
:1026900000688D490860002406E09048015D8B4881
:1026A00008300155601CC4B20C2CF6DB22E08948CE
:1026B000008886490880884800684860052282486A
:1026C0000068FFF722FF05469DB901208149088077
:1026D0007D48006800F580607B4908600846006816
:1026E0007F490968884205D37648006876490860C2
:1026F00000E000E0DBE700BF70BD10B50446072C2A
:1027000048D2DFE804F00423292F353B41004FF481
:1027100000417448FEF7FFFA4FF480417148FEF71C
:10272000FAFA4FF400516F48FEF7F5FA4FF4805172
:102730006C48FEF7F0FA4FF400616A48FEF7EBFAD6
:102740004FF480716748FEF7E6FA23E04FF400414A
:102750006448FEF7E0FA1DE04FF480416148FEF75F
:10276000DAFA17E04FF400515E48FEF7D4FA11E0B0
:102770004FF480515B48FEF7CEFA0BE04FF4006156
:102780005848FEF7C8FA05E04FF480715548FEF747
:10279000C2FA00BF00BF10BD10B50446072C48D2D6
:1027A000DFE804F00423292F353B41004FF40041BA
:1027B0004C48FEF7B2FA4FF480414A48FEF7ADFAB2
:1027C0004FF400514748FEF7A8FA4FF480514548AE
:1027D000FEF7A3FA4FF400614248FEF79EFA4FF469
:1027E00080714048FEF799FA23E04FF400413D48DC
:1027F000FEF793FA1DE04FF480413A48FEF78DFA58
:1028000017E04FF400513748FEF787FA11E04FF414
:1028100080513448FEF781FA0BE04FF400613148F3
:10282000FEF77BFA05E04FF480712E48FEF775FA4B
:1028300000BF00BF10BD10B50446072C3CD2DFE836
:1028400004F0041D22272C31360080212648FEF793
:1028500062FA40212448FEF75EFA20212248FEF762
:102860005AFA10212048FEF756FA08211E48FEF7B2
:1028700052FA02211C48FEF74EFA1DE080211A4848
:10288000FEF749FA18E040211748FEF744FA13E032
:1028900020211548FEF73FFA0EE010211248FEF7FE
:1028A0003AFA09E008211048FEF735FA04E002215F
:1028B0000D48FEF730FA00BF00BF10BD54000020E5
:1028C00028000020340000203C000020740000207C
:1028D0002A0000202C0000203000002040000020B2
:1028E0003800002000080140000C014010B50446EB
:1028F000072C3CD2DFE804F0041D22272C313600DF
:102900008021FE48FEF709FA4021FC48FEF705FA4F
:102910002021FA48FEF701FA1021F848FEF7FDF9E8
:102920000821F648FEF7F9F90221F448FEF7F5F917
:102930001DE08021F148FEF7F0F918E04021EF4852
:10294000FEF7EBF913E02021EC48FEF7E6F90EE084
:102950001021EA48FEF7E1F909E00821E748FEF70F
:10296000DCF904E00221E548FEF7D7F900BF00BF1B
:1029700010BD70B505460C4615B1012D06D104E019
:102980002146DFA000F058FD00E000BF00BF80211D
:10299000204600F01EFD70BD0146FF2902DA481CEA
:1029A000C0B270470020FCE72DE9F04105460C4617
:1029B000002700262021D34800F00BFD00BF20781F
:1029C000285C232807D1012F04D10020CD49885548
:1029D000022700E00327012F05D12078285CC94990
:1029E0008855701CC6B22078285C3A2801D101278E
:1029F00000262078FFF7D0FF2070012FDFDD00BF19
:102A000000BF3046BDE8F08170B58AB006460C467E
:102A1000154629462046FFF7C7FF012806DA202180
:102A2000B84800F0D6FC00200AB070BDB548007868
:102A300048287DD1B348407851287AD006DC3F2819
:102A400078D043285ED04F2875D104E0522873D047
:102A50005328F9D1E2E0AB48C0783038AA49087071
:102A6000AAA1AC4800F0F8FCA7480078062848DC8A
:102A7000A4488078442820D1A3480078FFF73DFE81
:102A8000A148007890B90020A349087009E001200E
:102A9000A249A14A127888549F480078401C9E4958
:102AA00008709D4800780628F1DB2AE0012196484D
:102AB0000078401E994A115423E0924880785528A6
:102AC0001FD191480078FFF7B6FE8F48007890B983
:102AD00006209149087009E0012190488E4A127839
:102AE00081548D480078401C8B4908708A480078D2
:102AF0000C28F1DB05E00121884A83480078401D5D
:102B00001154C3E07F48C07830387F49087084A1F1
:102B1000804800F0A1FC7C48007806284EDC79480B
:102B20008078442826D178480078FFF735FE04E005
:102B3000B5E07AE09EE0A4E041E07348007890B907
:102B400000207549087009E000207449724A127823
:102B5000885471480078401C6F4908706E480078AE
:102B60000628F1DB2AE0002167480078401E6B4A06
:102B7000115423E06348807855281FD162480078BB
:102B8000FFF7B4FE6048007890B9062062490870EB
:102B900009E000206149604A127888545E48007854
:102BA000401C5D4908705C4800780C28F1DB05E0AA
:102BB00000215A4A54480078401D115466E051489B
:102BC000C07830385049087057A1524800F044FC92
:102BD0004D480078062820DC4A48807844280CD1EB
:102BE00049480078FFF7D8FD41F28830FFF767FCCD
:102BF00045480078FFF781FD0FE04248807855286E
:102C00000BD141480078FFF771FE41F28830FFF7A1
:102C100056FC3D480078FFF70EFE37E044A13D48E2
:102C200000F01AFCFFF711FD30E03C48C07A3B4948
:102C3000897A3A4A527A394B1B7ACDE90632CDE984
:102C400008103648C07935498A794979334B1B7960
:102C5000CDE90231CDE904203048C0782F49897888
:102C6000CDE900102D484378027833A1294800F0BF
:102C7000F3FB0BE0384839A10268264800F0ECFB72
:102C800004E038A1234800F0E7FB00BF00BF214962
:102C90003046FFF76EFE20211A4800F09AFB012013
:102CA000C2E6FDF7D0FA00F00DFB4721632000F0EB
:102CB000D5FA00F008FAFFF766FC00201649087004
:102CC00055E0164814490978405C012806D112499C
:102CD0000978491CC8B2FFF710FD0AE00F480E49F9
:102CE0000978405C28B90C490978491CC8B2FFF73B
:102CF00053FD09480078401C074937E0000C0140AB
:102D000025730000880000204C0000203A4F230A61
:102D100000000000A80000204D000020400000201E
:102D20003A43230A000000003A52230A0000000040
:102D30003A53230A000000003A51256425642564B3
:102D4000256425642564256425642564256425643B
:102D50002564230A00000000500000203A3F25733C
:102D6000230A00003A55230A0000000008701D489D
:102D700000780628A5DB06201A4908701CE01A48CE
:102D800018490978405C012806D116490978491F7D
:102D9000C8B2FFF750FD0AE0134812490978405CB9
:102DA00028B910490978491FC8B2FFF79FFD0D489F
:102DB0000078401C0B4908700A4800780C28DEDBBC
:102DC0000EE009E009480078401E08490870084AEA
:102DD00008490020FFF718FE044800780028F1DCBD
:102DE000EFE700004D0000204000002064000020BC
:102DF0006200002028010020704700BFFEE700BFEE
:102E0000FEE700BFFEE700BFFEE770477047704770
:102E100010B500F011F910BD10B501214748FFF7BA
:102E2000E6F840B101214548FFF7DEF84448008844
:102E3000401C4349088010BD10B540F2255141485F
:102E4000FFF7AAFA80B33F48FFF726FA3E493F4A08
:102E50001278885408463D490978405C3A2803D1E5
:102E60003A4800783A49087038480078FFF794FDEE
:102E700038490978884206D13548007835490870C4
:102E8000002035490870304830490978405C2328D3
:102E900004D131480078401C2F4908702B48007835
:102EA000FFF77AFD2949087010BD10B540F2255191
:102EB0002A48FFF771FA80B32848FFF7EDF928494F
:102EC000284A12788854084626490978405C3A28EE
:102ED00003D1244800782449087022480078FFF77D
:102EE0005BFD22490978884206D11F4800781F49B6
:102EF000087000201E49087019481A490978405C7A
:102F0000232804D11A480078401C19490870154834
:102F10000078FFF741FD1349087010BD10B501207E
:102F2000FDF7F4FA40B1FFF790FB12A115A000F0F5
:102F300083FA0120FDF7FBFA10BD0000002C0140D0
:102F40005400002000380140280100206C000020BF
:102F50006600002062000020640000200044004061
:102F6000280200206D000020670000206300002080
:102F7000650000203A6F506F7765724F6666230DCB
:102F80000A0000002573000030B50146B1F1807FD2
:102F900001D3012030BD21F07F40401E4FF0E022E0
:102FA000506150170F22002807DA13071D0E374B08
:102FB00000F00F04241F1D5503E013071C0E344BB3
:102FC0001C5400BF00204FF0E022906107201061E8
:102FD0000020DFE710B52F4800682F49B0FBF1F45F
:102FE0002046FFF7D1FF08B100BFFEE710BD31B5A5
:102FF000284800682849B0FBF1F52846FFF7C4FFD0
:10300000002408E000BF4FF0E020006900F48030A9
:103010000028F8D0641C00988442F3D34FF0E020DD
:10302000006920F001004FF0E021086138BD01B5D2
:103030000098FFF7DCFF08BD1848006820B117486A
:103040000068401E15490860704731B51148006896
:103050004FF47A71B0FBF1F52846FFF795FF002495
:1030600008E000BF4FF0E020006900F48030002845
:10307000F8D0641C00988442F3D34FF0E02000693C
:1030800020F001004FF0E021086138BD18ED00E0AC
:1030900000E400E00000002040420F006800002033
:1030A00008B54FF4C060FDF74FF925208DF80000FA
:1030B00001208DF801008DF802008DF803006846AC
:1030C000FDF747F908BD00B585B001210420FEF7E2
:1030D00031F801218803FEF72DF84FF40070ADF8A8
:1030E000100018208DF8130003208DF8120004A999
:1030F0005648FDF763FD4FF48060ADF810000420E2
:103100008DF8130004A95148FDF758FD4FF41650EF
:1031100000900020ADF80400ADF80600ADF80800FE
:10312000ADF80C000C20ADF80A0069464848FEF7DF
:10313000B6FFFFF7B5FF012240F225514448FFF7E3
:1031400046F801214248FFF736F805B000BD70B5DA
:1031500004460D4629462046FFF79AF800BF802115
:103160002046FFF703F90028F9D070BD2DE9F041A2
:1031700007460D461646002405E0295D3846FFF750
:10318000E6FF601CC4B2B442F7DB00BF4021384602
:10319000FFF7ECF80028F9D0BDE8F08170B50646DD
:1031A0000C46002500BF615D3046FFF7D0FF6D1C67
:1031B000605D0028F7D100BF40213046FFF7D6F808
:1031C0000028F9D070BD2DE9F04105460C46260ACD
:1031D000E7B231462846FFF75BF800BF802128465A
:1031E000FFF7C4F80028F9D039462846FFF750F811
:1031F00000BF80212846FFF7B9F80028F9D0BDE8C4
:10320000F0810020134908701349124A127888543B
:10321000704770B504460D46E1B20D48FFF738F827
:1032200000BF80210A48FFF7A1F80028F9D0204606
:1032300070BD10B5044600BF20210548FFF796F881
:103240000028F9D00248FFF727F810BD0008014018
:10325000003801406C000020280100207FB50546A1
:103260000C460121C802FDF765FFADF80850ADF826
:1032700004400020ADF80A00ADF806008DF80C00FF
:1032800001A90F48FEF78EF8012211460C48FEF7FF
:1032900000FC4FF4C060FDF757F819208DF80000CE
:1032A00000208DF8010001208DF802008DF8030048
:1032B0006846FDF74EF801210148FEF7CFFB7FBDC0
:1032C000002C014008B501210D20FDF733FF01213D
:1032D0003948FDF744FD10208DF8030003208DF8D8
:1032E00002004FF40040ADF8000069463348FDF796
:1032F00065FC4FF48040ADF8000069462F48FDF7AB
:103300005DFC4FF40050ADF8000069462B48FDF716
:1033100055FC4FF48050ADF8000069462748FDF792
:103320004DFC4FF40060ADF8000069462348FDF7FE
:1033300045FC4FF48070ADF8000069461F48FDF76A
:103340003DFC8020ADF8000069461D48FDF736FCC5
:103350004020ADF8000069461948FDF72FFC2020F9
:10336000ADF8000069461648FDF728FC1020ADF8BE
:10337000000069461248FDF721FC0820ADF8000066
:1033800069460F48FDF71AFC0220ADF800006946B7
:103390000B48FDF713FC4FF48070ADF80000694650
:1033A0000748FDF70BFC4FF40070ADF800006946CC
:1033B0000348FDF703FC08BD00043000000801408D
:1033C000000C0140D2B201E000F8012B491EFBD2F3
:1033D00070470022F6E710B513460A460446194620
:1033E000FFF7F0FF204610BD30B50B460146002028
:1033F0002022012409E021FA02F59D4205D303FAB7
:1034000002F5491B04FA02F52844151EA2F1010237
:10341000F1DC30BD064C074D06E0E06840F00103EA
:1034200094E8070098471034AC42F6D3FCF784FECA
:10343000A0360008C03600080FB4054B10B503A92C
:10344000044A029800F02CF810BC5DF814FB000050
:1034500013320008700000200FB4084B10B504A907
:1034600002AA039800F01CF8044602A9002000F00C
:10347000F3F8204610BC5DF814FB00005936000834
:1034800002E008C8121F08C1002AFAD1704770472D
:10349000002001E001C1121F002AFBD1704700008B
:1034A0002DE9FF4F8BB09A460F460546002606E0F1
:1034B00025280BD052460D9990476D1C761C287814
:1034C0000028F5D10FB03046BDE8F08F0024A046AB
:1034D0000122604900E0044315F8013F203B02FA55
:1034E00003F00842F7D128782E2817D115F8010FDC
:1034F00044F004042A280ED06FF02F022878A0F19F
:10350000300109290AD808EB880102EB410100EBE0
:1035100001086D1CF2E757F8048B6D1C28786928A8
:103520003ED006DC0028CDD063280BD0642804D11F
:1035300036E0732810D075284BD052460D9990472D
:10354000761C85E017F8040B8DF8000000208DF83C
:103550000100E946012003E057F8049B4FF0FF30DB
:1035600061074FF0000401D40AE0641C44450DDA01
:103570008442FADB19F804100029F6D106E0641C35
:103580008442FCDB19F804100029F8D1264404E039
:1035900019F8010B52460D999047641EF8D257E076
:1035A00001CF4FF00A0B002802DA40422D2102E041
:1035B000210504D52B218DF82410012103E0E1071A
:1035C00005D02021F7E70DF1200908910CE000213A
:1035D000F9E701CF4FF00A0BF9E75946FFF704FF6F
:1035E00001F1300209F8012D0028F6D1ADEB0900F8
:1035F00000F1200B600701D44FF00108D84502DD2F
:10360000A8EB0B0000E000208046002406E009A89B
:103610005246005D0D999047641C761C08988442C0
:10362000F5DB04E0302052460D999047761CB8F146
:103630000001A8F10108F5DC05E019F8010B52467C
:103640000D999047761CBBF10001ABF1010BF4DC46
:103650006D1C34E7092801000A68531C0B601070C8
:103660007047000053537E4B43204875627E4B43A6
:103670002E415354524F7E7777772E6B6374772E9B
:10368000636E7E61726B406B6374772E636E7E3007
:103690003537362D383533383935333300000000AF
:1036A000C0360008000000207400000080340008CC
:1036B0003437000874000020B4060000903400087D
:1036C00000A24A0400000000000000000102030400
:1036D00006070809000000000102030401020304B8
:1036E00006070809020406080000F40100000000B3
:1036F000000000000080000800FC000800800008B6
:10370000010101010101010101010101630000004A
:1037100064360008000000000000102700000000D0
:103720000000000000000000000000000000000099
:043730000000000095
:0400000508000131BD
:00000001FF
